{
  "contractName": "WaterLicense",
  "abi": [
    {
      "inputs": [],
      "stateMutability": "payable",
      "type": "constructor",
      "payable": true
    },
    {
      "anonymous": false,
      "inputs": [
        {
          "indexed": true,
          "internalType": "address",
          "name": "owner",
          "type": "address"
        },
        {
          "indexed": true,
          "internalType": "address",
          "name": "approved",
          "type": "address"
        },
        {
          "indexed": true,
          "internalType": "uint256",
          "name": "tokenId",
          "type": "uint256"
        }
      ],
      "name": "Approval",
      "type": "event"
    },
    {
      "anonymous": false,
      "inputs": [
        {
          "indexed": true,
          "internalType": "address",
          "name": "owner",
          "type": "address"
        },
        {
          "indexed": true,
          "internalType": "address",
          "name": "operator",
          "type": "address"
        },
        {
          "indexed": false,
          "internalType": "bool",
          "name": "approved",
          "type": "bool"
        }
      ],
      "name": "ApprovalForAll",
      "type": "event"
    },
    {
      "anonymous": false,
      "inputs": [
        {
          "indexed": true,
          "internalType": "address",
          "name": "from",
          "type": "address"
        },
        {
          "indexed": true,
          "internalType": "address",
          "name": "to",
          "type": "address"
        },
        {
          "indexed": true,
          "internalType": "uint256",
          "name": "tokenId",
          "type": "uint256"
        }
      ],
      "name": "Transfer",
      "type": "event"
    },
    {
      "anonymous": false,
      "inputs": [
        {
          "indexed": false,
          "internalType": "string",
          "name": "show",
          "type": "string"
        }
      ],
      "name": "showMint",
      "type": "event"
    },
    {
      "inputs": [
        {
          "internalType": "address",
          "name": "to",
          "type": "address"
        },
        {
          "internalType": "uint256",
          "name": "tokenId",
          "type": "uint256"
        }
      ],
      "name": "approve",
      "outputs": [],
      "stateMutability": "nonpayable",
      "type": "function"
    },
    {
      "inputs": [
        {
          "internalType": "address",
          "name": "owner",
          "type": "address"
        }
      ],
      "name": "balanceOf",
      "outputs": [
        {
          "internalType": "uint256",
          "name": "",
          "type": "uint256"
        }
      ],
      "stateMutability": "view",
      "type": "function",
      "constant": true
    },
    {
      "inputs": [
        {
          "internalType": "uint256",
          "name": "",
          "type": "uint256"
        }
      ],
      "name": "displayApprovers",
      "outputs": [
        {
          "internalType": "uint256",
          "name": "weight",
          "type": "uint256"
        },
        {
          "internalType": "bool",
          "name": "canVote",
          "type": "bool"
        },
        {
          "internalType": "bool",
          "name": "isApproved",
          "type": "bool"
        },
        {
          "internalType": "uint256",
          "name": "waterQuality",
          "type": "uint256"
        }
      ],
      "stateMutability": "view",
      "type": "function",
      "constant": true
    },
    {
      "inputs": [
        {
          "internalType": "uint256",
          "name": "tokenId",
          "type": "uint256"
        }
      ],
      "name": "getApproved",
      "outputs": [
        {
          "internalType": "address",
          "name": "",
          "type": "address"
        }
      ],
      "stateMutability": "view",
      "type": "function",
      "constant": true
    },
    {
      "inputs": [
        {
          "internalType": "address",
          "name": "owner",
          "type": "address"
        },
        {
          "internalType": "address",
          "name": "operator",
          "type": "address"
        }
      ],
      "name": "isApprovedForAll",
      "outputs": [
        {
          "internalType": "bool",
          "name": "",
          "type": "bool"
        }
      ],
      "stateMutability": "view",
      "type": "function",
      "constant": true
    },
    {
      "inputs": [],
      "name": "isLicenseApproved",
      "outputs": [
        {
          "internalType": "bool",
          "name": "",
          "type": "bool"
        }
      ],
      "stateMutability": "view",
      "type": "function",
      "constant": true
    },
    {
      "inputs": [],
      "name": "name",
      "outputs": [
        {
          "internalType": "string",
          "name": "",
          "type": "string"
        }
      ],
      "stateMutability": "view",
      "type": "function",
      "constant": true
    },
    {
      "inputs": [],
      "name": "owner",
      "outputs": [
        {
          "internalType": "address payable",
          "name": "",
          "type": "address"
        }
      ],
      "stateMutability": "view",
      "type": "function",
      "constant": true
    },
    {
      "inputs": [
        {
          "internalType": "uint256",
          "name": "tokenId",
          "type": "uint256"
        }
      ],
      "name": "ownerOf",
      "outputs": [
        {
          "internalType": "address",
          "name": "",
          "type": "address"
        }
      ],
      "stateMutability": "view",
      "type": "function",
      "constant": true
    },
    {
      "inputs": [
        {
          "internalType": "address",
          "name": "from",
          "type": "address"
        },
        {
          "internalType": "address",
          "name": "to",
          "type": "address"
        },
        {
          "internalType": "uint256",
          "name": "tokenId",
          "type": "uint256"
        }
      ],
      "name": "safeTransferFrom",
      "outputs": [],
      "stateMutability": "nonpayable",
      "type": "function"
    },
    {
      "inputs": [
        {
          "internalType": "address",
          "name": "from",
          "type": "address"
        },
        {
          "internalType": "address",
          "name": "to",
          "type": "address"
        },
        {
          "internalType": "uint256",
          "name": "tokenId",
          "type": "uint256"
        },
        {
          "internalType": "bytes",
          "name": "data",
          "type": "bytes"
        }
      ],
      "name": "safeTransferFrom",
      "outputs": [],
      "stateMutability": "nonpayable",
      "type": "function"
    },
    {
      "inputs": [
        {
          "internalType": "address",
          "name": "operator",
          "type": "address"
        },
        {
          "internalType": "bool",
          "name": "approved",
          "type": "bool"
        }
      ],
      "name": "setApprovalForAll",
      "outputs": [],
      "stateMutability": "nonpayable",
      "type": "function"
    },
    {
      "inputs": [],
      "name": "state",
      "outputs": [
        {
          "internalType": "enum WaterLicense.phase",
          "name": "",
          "type": "uint8"
        }
      ],
      "stateMutability": "view",
      "type": "function",
      "constant": true
    },
    {
      "inputs": [
        {
          "internalType": "bytes4",
          "name": "interfaceId",
          "type": "bytes4"
        }
      ],
      "name": "supportsInterface",
      "outputs": [
        {
          "internalType": "bool",
          "name": "",
          "type": "bool"
        }
      ],
      "stateMutability": "view",
      "type": "function",
      "constant": true
    },
    {
      "inputs": [],
      "name": "symbol",
      "outputs": [
        {
          "internalType": "string",
          "name": "",
          "type": "string"
        }
      ],
      "stateMutability": "view",
      "type": "function",
      "constant": true
    },
    {
      "inputs": [
        {
          "internalType": "uint256",
          "name": "tokenId",
          "type": "uint256"
        }
      ],
      "name": "tokenURI",
      "outputs": [
        {
          "internalType": "string",
          "name": "",
          "type": "string"
        }
      ],
      "stateMutability": "view",
      "type": "function",
      "constant": true
    },
    {
      "inputs": [],
      "name": "tokenValue",
      "outputs": [
        {
          "internalType": "uint256",
          "name": "",
          "type": "uint256"
        }
      ],
      "stateMutability": "view",
      "type": "function",
      "constant": true
    },
    {
      "inputs": [
        {
          "internalType": "address",
          "name": "from",
          "type": "address"
        },
        {
          "internalType": "address",
          "name": "to",
          "type": "address"
        },
        {
          "internalType": "uint256",
          "name": "tokenId",
          "type": "uint256"
        }
      ],
      "name": "transferFrom",
      "outputs": [],
      "stateMutability": "nonpayable",
      "type": "function"
    },
    {
      "inputs": [],
      "name": "waterQuality",
      "outputs": [
        {
          "internalType": "uint256",
          "name": "",
          "type": "uint256"
        }
      ],
      "stateMutability": "view",
      "type": "function",
      "constant": true
    },
    {
      "inputs": [
        {
          "internalType": "enum WaterLicense.phase",
          "name": "ph",
          "type": "uint8"
        }
      ],
      "name": "changePhase",
      "outputs": [],
      "stateMutability": "nonpayable",
      "type": "function"
    },
    {
      "inputs": [
        {
          "internalType": "address",
          "name": "voter",
          "type": "address"
        },
        {
          "internalType": "uint256",
          "name": "weight",
          "type": "uint256"
        }
      ],
      "name": "registerVoter",
      "outputs": [],
      "stateMutability": "nonpayable",
      "type": "function"
    },
    {
      "inputs": [
        {
          "internalType": "bool",
          "name": "approval",
          "type": "bool"
        },
        {
          "internalType": "uint256",
          "name": "waterRating",
          "type": "uint256"
        }
      ],
      "name": "castVote",
      "outputs": [],
      "stateMutability": "nonpayable",
      "type": "function"
    },
    {
      "inputs": [],
      "name": "buyWater",
      "outputs": [],
      "stateMutability": "payable",
      "type": "function",
      "payable": true
    },
    {
      "inputs": [
        {
          "internalType": "uint256",
          "name": "rate",
          "type": "uint256"
        }
      ],
      "name": "rating",
      "outputs": [],
      "stateMutability": "nonpayable",
      "type": "function"
    },
    {
      "inputs": [],
      "name": "mintToken",
      "outputs": [],
      "stateMutability": "nonpayable",
      "type": "function"
    },
    {
      "inputs": [
        {
          "internalType": "address payable",
          "name": "toAddress",
          "type": "address"
        }
      ],
      "name": "setNewOwner",
      "outputs": [],
      "stateMutability": "nonpayable",
      "type": "function"
    },
    {
      "inputs": [],
      "name": "renewLicense",
      "outputs": [],
      "stateMutability": "nonpayable",
      "type": "function"
    }
  ],
  "bytecode": "0x60806040526002600c60146101000a81548160ff021916908360028111156200002d576200002c6200016b565b5b02179055506040518060400160405280600c81526020017f57617465724c6963656e736500000000000000000000000000000000000000008152506040518060400160405280600281526020017f574c0000000000000000000000000000000000000000000000000000000000008152508160009081620000af919062000414565b508060019081620000c1919062000414565b50505033600760006101000a81548173ffffffffffffffffffffffffffffffffffffffff021916908373ffffffffffffffffffffffffffffffffffffffff160217905550346006819055506000600760146101000a81548160ff02191690831515021790555060006008819055506000600c60146101000a81548160ff021916908360028111156200015857620001576200016b565b5b02179055506000600b81905550620004fb565b7f4e487b7100000000000000000000000000000000000000000000000000000000600052602160045260246000fd5b600081519050919050565b7f4e487b7100000000000000000000000000000000000000000000000000000000600052604160045260246000fd5b7f4e487b7100000000000000000000000000000000000000000000000000000000600052602260045260246000fd5b600060028204905060018216806200021c57607f821691505b602082108103620002325762000231620001d4565b5b50919050565b60008190508160005260206000209050919050565b60006020601f8301049050919050565b600082821b905092915050565b6000600883026200029c7fffffffffffffffffffffffffffffffffffffffffffffffffffffffffffffffff826200025d565b620002a886836200025d565b95508019841693508086168417925050509392505050565b6000819050919050565b6000819050919050565b6000620002f5620002ef620002e984620002c0565b620002ca565b620002c0565b9050919050565b6000819050919050565b6200031183620002d4565b620003296200032082620002fc565b8484546200026a565b825550505050565b600090565b6200034062000331565b6200034d81848462000306565b505050565b5b8181101562000375576200036960008262000336565b60018101905062000353565b5050565b601f821115620003c4576200038e8162000238565b62000399846200024d565b81016020851015620003a9578190505b620003c1620003b8856200024d565b83018262000352565b50505b505050565b600082821c905092915050565b6000620003e960001984600802620003c9565b1980831691505092915050565b6000620004048383620003d6565b9150826002028217905092915050565b6200041f826200019a565b67ffffffffffffffff8111156200043b576200043a620001a5565b5b62000447825462000203565b6200045482828562000379565b600060209050601f8311600181146200048c576000841562000477578287015190505b620004838582620003f6565b865550620004f3565b601f1984166200049c8662000238565b60005b82811015620004c6578489015182556001820191506020850194506020810190506200049f565b86831015620004e65784890151620004e2601f891682620003d6565b8355505b6001600288020188555050505b505050505050565b613779806200050b6000396000f3fe60806040526004361061019c5760003560e01c80636aaa98a1116100ec578063c19d93fb1161008a578063cbea81ef11610064578063cbea81ef14610594578063d69ac150146105bd578063e985e9c5146105e8578063f5a1f5b4146106255761019c565b8063c19d93fb14610522578063c87b56dd1461054d578063ca8595a91461058a5761019c565b80638da5cb5b116100c65780638da5cb5b1461047a57806395d89b41146104a5578063a22cb465146104d0578063b88d4fde146104f95761019c565b80636aaa98a1146103d257806370a082311461041257806377e2d1361461044f5761019c565b80632004ffd91161015957806339b2d9e41161013357806339b2d9e41461032c5780633f2fa0301461034357806342842e0e1461036c5780636352211e146103955761019c565b80632004ffd9146102c357806323b872dd146102da57806331fd5cbc146103035761019c565b806301ffc9a7146101a157806306fdde03146101de5780630721c29714610209578063081812fc14610232578063095ea7b31461026f5780631ec7e34514610298575b600080fd5b3480156101ad57600080fd5b506101c860048036038101906101c391906125ed565b61064e565b6040516101d59190612635565b60405180910390f35b3480156101ea57600080fd5b506101f3610730565b60405161020091906126e0565b60405180910390f35b34801561021557600080fd5b50610230600480360381019061022b9190612727565b6107c2565b005b34801561023e57600080fd5b506102596004803603810190610254919061278a565b610888565b60405161026691906127f8565b60405180910390f35b34801561027b57600080fd5b506102966004803603810190610291919061283f565b6108ce565b005b3480156102a457600080fd5b506102ad6109e5565b6040516102ba919061288e565b60405180910390f35b3480156102cf57600080fd5b506102d86109eb565b005b3480156102e657600080fd5b5061030160048036038101906102fc91906128a9565b610ad6565b005b34801561030f57600080fd5b5061032a6004803603810190610325919061278a565b610b36565b005b34801561033857600080fd5b50610341610cb1565b005b34801561034f57600080fd5b5061036a60048036038101906103659190612928565b610d5b565b005b34801561037857600080fd5b50610393600480360381019061038e91906128a9565b61103b565b005b3480156103a157600080fd5b506103bc60048036038101906103b7919061278a565b61105b565b6040516103c991906127f8565b60405180910390f35b3480156103de57600080fd5b506103f960048036038101906103f4919061278a565b6110e1565b6040516104099493929190612968565b60405180910390f35b34801561041e57600080fd5b50610439600480360381019061043491906129ad565b61113b565b604051610446919061288e565b60405180910390f35b34801561045b57600080fd5b506104646111f2565b6040516104719190612635565b60405180910390f35b34801561048657600080fd5b5061048f611205565b60405161049c91906129fb565b60405180910390f35b3480156104b157600080fd5b506104ba61122b565b6040516104c791906126e0565b60405180910390f35b3480156104dc57600080fd5b506104f760048036038101906104f29190612a16565b6112bd565b005b34801561050557600080fd5b50610520600480360381019061051b9190612b8b565b6112d3565b005b34801561052e57600080fd5b50610537611335565b6040516105449190612c85565b60405180910390f35b34801561055957600080fd5b50610574600480360381019061056f919061278a565b611348565b60405161058191906126e0565b60405180910390f35b6105926113b0565b005b3480156105a057600080fd5b506105bb60048036038101906105b6919061283f565b611495565b005b3480156105c957600080fd5b506105d26115d7565b6040516105df919061288e565b60405180910390f35b3480156105f457600080fd5b5061060f600480360381019061060a9190612ca0565b6115dd565b60405161061c9190612635565b60405180910390f35b34801561063157600080fd5b5061064c60048036038101906106479190612d0c565b611671565b005b60007f80ac58cd000000000000000000000000000000000000000000000000000000007bffffffffffffffffffffffffffffffffffffffffffffffffffffffff1916827bffffffffffffffffffffffffffffffffffffffffffffffffffffffff1916148061071957507f5b5e139f000000000000000000000000000000000000000000000000000000007bffffffffffffffffffffffffffffffffffffffffffffffffffffffff1916827bffffffffffffffffffffffffffffffffffffffffffffffffffffffff1916145b8061072957506107288261182c565b5b9050919050565b60606000805461073f90612d68565b80601f016020809104026020016040519081016040528092919081815260200182805461076b90612d68565b80156107b85780601f1061078d576101008083540402835291602001916107b8565b820191906000526020600020905b81548152906001019060200180831161079b57829003601f168201915b5050505050905090565b600760009054906101000a900473ffffffffffffffffffffffffffffffffffffffff1673ffffffffffffffffffffffffffffffffffffffff163373ffffffffffffffffffffffffffffffffffffffff161461081c57600080fd5b600c60149054906101000a900460ff16600281111561083e5761083d612c0e565b5b81600281111561085157610850612c0e565b5b1161085b57600080fd5b80600c60146101000a81548160ff021916908360028111156108805761087f612c0e565b5b021790555050565b600061089382611896565b6004600083815260200190815260200160002060009054906101000a900473ffffffffffffffffffffffffffffffffffffffff169050919050565b60006108d98261105b565b90508073ffffffffffffffffffffffffffffffffffffffff168373ffffffffffffffffffffffffffffffffffffffff1603610949576040517f08c379a000000000000000000000000000000000000000000000000000000000815260040161094090612e0b565b60405180910390fd5b8073ffffffffffffffffffffffffffffffffffffffff166109686118e1565b73ffffffffffffffffffffffffffffffffffffffff1614806109975750610996816109916118e1565b6115dd565b5b6109d6576040517f08c379a00000000000000000000000000000000000000000000000000000000081526004016109cd90612e9d565b60405180910390fd5b6109e083836118e9565b505050565b60065481565b600760009054906101000a900473ffffffffffffffffffffffffffffffffffffffff1673ffffffffffffffffffffffffffffffffffffffff163373ffffffffffffffffffffffffffffffffffffffff1614610a4557600080fd5b600a546009819055507f753a6424b7ae0568b9fc8547b856f3b8c386575acbddeeaf1bd04b61278779fa600954604051602001610a829190612f81565b604051602081830303815290604052604051610a9e91906126e0565b60405180910390a1610ad4600760009054906101000a900473ffffffffffffffffffffffffffffffffffffffff166009546119a2565b565b610ae7610ae16118e1565b82611bbf565b610b26576040517f08c379a0000000000000000000000000000000000000000000000000000000008152600401610b1d90613024565b60405180910390fd5b610b31838383611c54565b505050565b6002806002811115610b4b57610b4a612c0e565b5b600c60149054906101000a900460ff166002811115610b6d57610b6c612c0e565b5b14610b7757600080fd5b60011515600f60003373ffffffffffffffffffffffffffffffffffffffff1673ffffffffffffffffffffffffffffffffffffffff16815260200190815260200160002060000160009054906101000a900460ff16151514610bd757600080fd5b60018210158015610be9575060058211155b610c28576040517f08c379a0000000000000000000000000000000000000000000000000000000008152600401610c1f90613090565b60405180910390fd5b81600f60003373ffffffffffffffffffffffffffffffffffffffff1673ffffffffffffffffffffffffffffffffffffffff1681526020019081526020016000206001018190555060038210610c945760066000815480929190610c8a906130df565b9190505550610cad565b60066000815480929190610ca790613127565b91905055505b5050565b600760009054906101000a900473ffffffffffffffffffffffffffffffffffffffff1673ffffffffffffffffffffffffffffffffffffffff163373ffffffffffffffffffffffffffffffffffffffff1614610d0b57600080fd5b60006008819055506000600760146101000a81548160ff0219169083151502179055506000600c60146101000a81548160ff02191690836002811115610d5457610d53612c0e565b5b0217905550565b6001806002811115610d7057610d6f612c0e565b5b600c60149054906101000a900460ff166002811115610d9257610d91612c0e565b5b14610d9c57600080fd5b60011515600d60003373ffffffffffffffffffffffffffffffffffffffff1673ffffffffffffffffffffffffffffffffffffffff16815260200190815260200160002060010160009054906101000a900460ff16151514610dfc57600080fd5b8215610e5e57600d60003373ffffffffffffffffffffffffffffffffffffffff1673ffffffffffffffffffffffffffffffffffffffff1681526020019081526020016000206000015460086000828254610e569190613150565b925050819055505b600e6040518060800160405280600d60003373ffffffffffffffffffffffffffffffffffffffff1673ffffffffffffffffffffffffffffffffffffffff168152602001908152602001600020600001548152602001600d60003373ffffffffffffffffffffffffffffffffffffffff1673ffffffffffffffffffffffffffffffffffffffff16815260200190815260200160002060010160009054906101000a900460ff161515815260200185151581526020018481525090806001815401808255809150506001900390600052602060002090600302016000909190919091506000820151816000015560208201518160010160006101000a81548160ff02191690831515021790555060408201518160010160016101000a81548160ff021916908315150217905550606082015181600201555050600360085410611036576001600760146101000a81548160ff02191690831515021790555060005b600e8054905081101561101b57600e8181548110610fde57610fdd613184565b5b906000526020600020906003020160020154600a60008282546110019190613150565b925050819055508080611013906130df565b915050610fbd565b50600e80549050600a5461102f91906131e2565b600a819055505b505050565b611056838383604051806020016040528060008152506112d3565b505050565b60008061106783611f4d565b9050600073ffffffffffffffffffffffffffffffffffffffff168173ffffffffffffffffffffffffffffffffffffffff16036110d8576040517f08c379a00000000000000000000000000000000000000000000000000000000081526004016110cf9061325f565b60405180910390fd5b80915050919050565b600e81815481106110f157600080fd5b90600052602060002090600302016000915090508060000154908060010160009054906101000a900460ff16908060010160019054906101000a900460ff16908060020154905084565b60008073ffffffffffffffffffffffffffffffffffffffff168273ffffffffffffffffffffffffffffffffffffffff16036111ab576040517f08c379a00000000000000000000000000000000000000000000000000000000081526004016111a2906132f1565b60405180910390fd5b600360008373ffffffffffffffffffffffffffffffffffffffff1673ffffffffffffffffffffffffffffffffffffffff168152602001908152602001600020549050919050565b600760149054906101000a900460ff1681565b600760009054906101000a900473ffffffffffffffffffffffffffffffffffffffff1681565b60606001805461123a90612d68565b80601f016020809104026020016040519081016040528092919081815260200182805461126690612d68565b80156112b35780601f10611288576101008083540402835291602001916112b3565b820191906000526020600020905b81548152906001019060200180831161129657829003601f168201915b5050505050905090565b6112cf6112c86118e1565b8383611f8a565b5050565b6112e46112de6118e1565b83611bbf565b611323576040517f08c379a000000000000000000000000000000000000000000000000000000000815260040161131a90613024565b60405180910390fd5b61132f848484846120f6565b50505050565b600c60149054906101000a900460ff1681565b606061135382611896565b600061135d612152565b9050600081511161137d57604051806020016040528060008152506113a8565b8061138784612169565b604051602001611398929190613342565b6040516020818303038152906040525b915050919050565b60011515600760149054906101000a900460ff161515146113d057600080fd5b60028060028111156113e5576113e4612c0e565b5b600c60149054906101000a900460ff16600281111561140757611406612c0e565b5b1461141157600080fd5b6000341161141e57600080fd5b34600b60008282546114309190613150565b925050819055506001600f60003373ffffffffffffffffffffffffffffffffffffffff1673ffffffffffffffffffffffffffffffffffffffff16815260200190815260200160002060000160006101000a81548160ff02191690831515021790555050565b600760009054906101000a900473ffffffffffffffffffffffffffffffffffffffff1673ffffffffffffffffffffffffffffffffffffffff163373ffffffffffffffffffffffffffffffffffffffff16146114ef57600080fd5b600080600281111561150457611503612c0e565b5b600c60149054906101000a900460ff16600281111561152657611525612c0e565b5b1461153057600080fd5b81600d60008573ffffffffffffffffffffffffffffffffffffffff1673ffffffffffffffffffffffffffffffffffffffff168152602001908152602001600020600001819055506001600d60008573ffffffffffffffffffffffffffffffffffffffff1673ffffffffffffffffffffffffffffffffffffffff16815260200190815260200160002060010160006101000a81548160ff021916908315150217905550505050565b600a5481565b6000600560008473ffffffffffffffffffffffffffffffffffffffff1673ffffffffffffffffffffffffffffffffffffffff16815260200190815260200160002060008373ffffffffffffffffffffffffffffffffffffffff1673ffffffffffffffffffffffffffffffffffffffff16815260200190815260200160002060009054906101000a900460ff16905092915050565b600760009054906101000a900473ffffffffffffffffffffffffffffffffffffffff1673ffffffffffffffffffffffffffffffffffffffff163373ffffffffffffffffffffffffffffffffffffffff16146116cb57600080fd5b80600c60006101000a81548173ffffffffffffffffffffffffffffffffffffffff021916908373ffffffffffffffffffffffffffffffffffffffff16021790555061175d600760009054906101000a900473ffffffffffffffffffffffffffffffffffffffff16600c60009054906101000a900473ffffffffffffffffffffffffffffffffffffffff1660095461103b565b600760009054906101000a900473ffffffffffffffffffffffffffffffffffffffff1673ffffffffffffffffffffffffffffffffffffffff166108fc479081150290604051600060405180830381858888f193505050501580156117c5573d6000803e3d6000fd5b50600c60009054906101000a900473ffffffffffffffffffffffffffffffffffffffff16600760006101000a81548173ffffffffffffffffffffffffffffffffffffffff021916908373ffffffffffffffffffffffffffffffffffffffff16021790555050565b60007f01ffc9a7000000000000000000000000000000000000000000000000000000007bffffffffffffffffffffffffffffffffffffffffffffffffffffffff1916827bffffffffffffffffffffffffffffffffffffffffffffffffffffffff1916149050919050565b61189f81612237565b6118de576040517f08c379a00000000000000000000000000000000000000000000000000000000081526004016118d59061325f565b60405180910390fd5b50565b600033905090565b816004600083815260200190815260200160002060006101000a81548173ffffffffffffffffffffffffffffffffffffffff021916908373ffffffffffffffffffffffffffffffffffffffff160217905550808273ffffffffffffffffffffffffffffffffffffffff1661195c8361105b565b73ffffffffffffffffffffffffffffffffffffffff167f8c5be1e5ebec7d5bd14f71427d1e84f3dd0314c0f7b2291e5b200ac8c7c3b92560405160405180910390a45050565b600073ffffffffffffffffffffffffffffffffffffffff168273ffffffffffffffffffffffffffffffffffffffff1603611a11576040517f08c379a0000000000000000000000000000000000000000000000000000000008152600401611a08906133b2565b60405180910390fd5b611a1a81612237565b15611a5a576040517f08c379a0000000000000000000000000000000000000000000000000000000008152600401611a519061341e565b60405180910390fd5b611a68600083836001612278565b611a7181612237565b15611ab1576040517f08c379a0000000000000000000000000000000000000000000000000000000008152600401611aa89061341e565b60405180910390fd5b6001600360008473ffffffffffffffffffffffffffffffffffffffff1673ffffffffffffffffffffffffffffffffffffffff16815260200190815260200160002060008282540192505081905550816002600083815260200190815260200160002060006101000a81548173ffffffffffffffffffffffffffffffffffffffff021916908373ffffffffffffffffffffffffffffffffffffffff160217905550808273ffffffffffffffffffffffffffffffffffffffff16600073ffffffffffffffffffffffffffffffffffffffff167fddf252ad1be2c89b69c2b068fc378daa952ba7f163c4a11628f55a4df523b3ef60405160405180910390a4611bbb60008383600161227e565b5050565b600080611bcb8361105b565b90508073ffffffffffffffffffffffffffffffffffffffff168473ffffffffffffffffffffffffffffffffffffffff161480611c0d5750611c0c81856115dd565b5b80611c4b57508373ffffffffffffffffffffffffffffffffffffffff16611c3384610888565b73ffffffffffffffffffffffffffffffffffffffff16145b91505092915050565b8273ffffffffffffffffffffffffffffffffffffffff16611c748261105b565b73ffffffffffffffffffffffffffffffffffffffff1614611cca576040517f08c379a0000000000000000000000000000000000000000000000000000000008152600401611cc1906134b0565b60405180910390fd5b600073ffffffffffffffffffffffffffffffffffffffff168273ffffffffffffffffffffffffffffffffffffffff1603611d39576040517f08c379a0000000000000000000000000000000000000000000000000000000008152600401611d3090613542565b60405180910390fd5b611d468383836001612278565b8273ffffffffffffffffffffffffffffffffffffffff16611d668261105b565b73ffffffffffffffffffffffffffffffffffffffff1614611dbc576040517f08c379a0000000000000000000000000000000000000000000000000000000008152600401611db3906134b0565b60405180910390fd5b6004600082815260200190815260200160002060006101000a81549073ffffffffffffffffffffffffffffffffffffffff02191690556001600360008573ffffffffffffffffffffffffffffffffffffffff1673ffffffffffffffffffffffffffffffffffffffff168152602001908152602001600020600082825403925050819055506001600360008473ffffffffffffffffffffffffffffffffffffffff1673ffffffffffffffffffffffffffffffffffffffff16815260200190815260200160002060008282540192505081905550816002600083815260200190815260200160002060006101000a81548173ffffffffffffffffffffffffffffffffffffffff021916908373ffffffffffffffffffffffffffffffffffffffff160217905550808273ffffffffffffffffffffffffffffffffffffffff168473ffffffffffffffffffffffffffffffffffffffff167fddf252ad1be2c89b69c2b068fc378daa952ba7f163c4a11628f55a4df523b3ef60405160405180910390a4611f48838383600161227e565b505050565b60006002600083815260200190815260200160002060009054906101000a900473ffffffffffffffffffffffffffffffffffffffff169050919050565b8173ffffffffffffffffffffffffffffffffffffffff168373ffffffffffffffffffffffffffffffffffffffff1603611ff8576040517f08c379a0000000000000000000000000000000000000000000000000000000008152600401611fef906135ae565b60405180910390fd5b80600560008573ffffffffffffffffffffffffffffffffffffffff1673ffffffffffffffffffffffffffffffffffffffff16815260200190815260200160002060008473ffffffffffffffffffffffffffffffffffffffff1673ffffffffffffffffffffffffffffffffffffffff16815260200190815260200160002060006101000a81548160ff0219169083151502179055508173ffffffffffffffffffffffffffffffffffffffff168373ffffffffffffffffffffffffffffffffffffffff167f17307eab39ab6107e8899845ad3d59bd9653f200f220920489ca2b5937696c31836040516120e99190612635565b60405180910390a3505050565b612101848484611c54565b61210d84848484612284565b61214c576040517f08c379a000000000000000000000000000000000000000000000000000000000815260040161214390613640565b60405180910390fd5b50505050565b606060405180602001604052806000815250905090565b6060600060016121788461240b565b01905060008167ffffffffffffffff81111561219757612196612a60565b5b6040519080825280601f01601f1916602001820160405280156121c95781602001600182028036833780820191505090505b509050600082602001820190505b60011561222c578080600190039150507f3031323334353637383961626364656600000000000000000000000000000000600a86061a8153600a85816122205761221f6131b3565b5b049450600085036121d7575b819350505050919050565b60008073ffffffffffffffffffffffffffffffffffffffff1661225983611f4d565b73ffffffffffffffffffffffffffffffffffffffff1614159050919050565b50505050565b50505050565b60006122a58473ffffffffffffffffffffffffffffffffffffffff1661255e565b156123fe578373ffffffffffffffffffffffffffffffffffffffff1663150b7a026122ce6118e1565b8786866040518563ffffffff1660e01b81526004016122f094939291906136b5565b6020604051808303816000875af192505050801561232c57506040513d601f19601f820116820180604052508101906123299190613716565b60015b6123ae573d806000811461235c576040519150601f19603f3d011682016040523d82523d6000602084013e612361565b606091505b5060008151036123a6576040517f08c379a000000000000000000000000000000000000000000000000000000000815260040161239d90613640565b60405180910390fd5b805181602001fd5b63150b7a0260e01b7bffffffffffffffffffffffffffffffffffffffffffffffffffffffff1916817bffffffffffffffffffffffffffffffffffffffffffffffffffffffff191614915050612403565b600190505b949350505050565b600080600090507a184f03e93ff9f4daa797ed6e38ed64bf6a1f0100000000000000008310612469577a184f03e93ff9f4daa797ed6e38ed64bf6a1f010000000000000000838161245f5761245e6131b3565b5b0492506040810190505b6d04ee2d6d415b85acef810000000083106124a6576d04ee2d6d415b85acef8100000000838161249c5761249b6131b3565b5b0492506020810190505b662386f26fc1000083106124d557662386f26fc1000083816124cb576124ca6131b3565b5b0492506010810190505b6305f5e10083106124fe576305f5e10083816124f4576124f36131b3565b5b0492506008810190505b6127108310612523576127108381612519576125186131b3565b5b0492506004810190505b60648310612546576064838161253c5761253b6131b3565b5b0492506002810190505b600a8310612555576001810190505b80915050919050565b6000808273ffffffffffffffffffffffffffffffffffffffff163b119050919050565b6000604051905090565b600080fd5b600080fd5b60007fffffffff0000000000000000000000000000000000000000000000000000000082169050919050565b6125ca81612595565b81146125d557600080fd5b50565b6000813590506125e7816125c1565b92915050565b6000602082840312156126035761260261258b565b5b6000612611848285016125d8565b91505092915050565b60008115159050919050565b61262f8161261a565b82525050565b600060208201905061264a6000830184612626565b92915050565b600081519050919050565b600082825260208201905092915050565b60005b8381101561268a57808201518184015260208101905061266f565b60008484015250505050565b6000601f19601f8301169050919050565b60006126b282612650565b6126bc818561265b565b93506126cc81856020860161266c565b6126d581612696565b840191505092915050565b600060208201905081810360008301526126fa81846126a7565b905092915050565b6003811061270f57600080fd5b50565b60008135905061272181612702565b92915050565b60006020828403121561273d5761273c61258b565b5b600061274b84828501612712565b91505092915050565b6000819050919050565b61276781612754565b811461277257600080fd5b50565b6000813590506127848161275e565b92915050565b6000602082840312156127a05761279f61258b565b5b60006127ae84828501612775565b91505092915050565b600073ffffffffffffffffffffffffffffffffffffffff82169050919050565b60006127e2826127b7565b9050919050565b6127f2816127d7565b82525050565b600060208201905061280d60008301846127e9565b92915050565b61281c816127d7565b811461282757600080fd5b50565b60008135905061283981612813565b92915050565b600080604083850312156128565761285561258b565b5b60006128648582860161282a565b925050602061287585828601612775565b9150509250929050565b61288881612754565b82525050565b60006020820190506128a3600083018461287f565b92915050565b6000806000606084860312156128c2576128c161258b565b5b60006128d08682870161282a565b93505060206128e18682870161282a565b92505060406128f286828701612775565b9150509250925092565b6129058161261a565b811461291057600080fd5b50565b600081359050612922816128fc565b92915050565b6000806040838503121561293f5761293e61258b565b5b600061294d85828601612913565b925050602061295e85828601612775565b9150509250929050565b600060808201905061297d600083018761287f565b61298a6020830186612626565b6129976040830185612626565b6129a4606083018461287f565b95945050505050565b6000602082840312156129c3576129c261258b565b5b60006129d18482850161282a565b91505092915050565b60006129e5826127b7565b9050919050565b6129f5816129da565b82525050565b6000602082019050612a1060008301846129ec565b92915050565b60008060408385031215612a2d57612a2c61258b565b5b6000612a3b8582860161282a565b9250506020612a4c85828601612913565b9150509250929050565b600080fd5b600080fd5b7f4e487b7100000000000000000000000000000000000000000000000000000000600052604160045260246000fd5b612a9882612696565b810181811067ffffffffffffffff82111715612ab757612ab6612a60565b5b80604052505050565b6000612aca612581565b9050612ad68282612a8f565b919050565b600067ffffffffffffffff821115612af657612af5612a60565b5b612aff82612696565b9050602081019050919050565b82818337600083830152505050565b6000612b2e612b2984612adb565b612ac0565b905082815260208101848484011115612b4a57612b49612a5b565b5b612b55848285612b0c565b509392505050565b600082601f830112612b7257612b71612a56565b5b8135612b82848260208601612b1b565b91505092915050565b60008060008060808587031215612ba557612ba461258b565b5b6000612bb38782880161282a565b9450506020612bc48782880161282a565b9350506040612bd587828801612775565b925050606085013567ffffffffffffffff811115612bf657612bf5612590565b5b612c0287828801612b5d565b91505092959194509250565b7f4e487b7100000000000000000000000000000000000000000000000000000000600052602160045260246000fd5b60038110612c4e57612c4d612c0e565b5b50565b6000819050612c5f82612c3d565b919050565b6000612c6f82612c51565b9050919050565b612c7f81612c64565b82525050565b6000602082019050612c9a6000830184612c76565b92915050565b60008060408385031215612cb757612cb661258b565b5b6000612cc58582860161282a565b9250506020612cd68582860161282a565b9150509250929050565b612ce9816129da565b8114612cf457600080fd5b50565b600081359050612d0681612ce0565b92915050565b600060208284031215612d2257612d2161258b565b5b6000612d3084828501612cf7565b91505092915050565b7f4e487b7100000000000000000000000000000000000000000000000000000000600052602260045260246000fd5b60006002820490506001821680612d8057607f821691505b602082108103612d9357612d92612d39565b5b50919050565b7f4552433732313a20617070726f76616c20746f2063757272656e74206f776e6560008201527f7200000000000000000000000000000000000000000000000000000000000000602082015250565b6000612df560218361265b565b9150612e0082612d99565b604082019050919050565b60006020820190508181036000830152612e2481612de8565b9050919050565b7f4552433732313a20617070726f76652063616c6c6572206973206e6f7420746f60008201527f6b656e206f776e6572206f7220617070726f76656420666f7220616c6c000000602082015250565b6000612e87603d8361265b565b9150612e9282612e2b565b604082019050919050565b60006020820190508181036000830152612eb681612e7a565b9050919050565b600081905092915050565b7f596f757220746f6b656e207769746820746f6b656e2049443a20000000000000600082015250565b6000612efe601a83612ebd565b9150612f0982612ec8565b601a82019050919050565b6000819050919050565b612f2f612f2a82612754565b612f14565b82525050565b7f20686173206265656e206d696e74656421000000000000000000000000000000600082015250565b6000612f6b601183612ebd565b9150612f7682612f35565b601182019050919050565b6000612f8c82612ef1565b9150612f988284612f1e565b602082019150612fa782612f5e565b915081905092915050565b7f4552433732313a2063616c6c6572206973206e6f7420746f6b656e206f776e6560008201527f72206f7220617070726f76656400000000000000000000000000000000000000602082015250565b600061300e602d8361265b565b915061301982612fb2565b604082019050919050565b6000602082019050818103600083015261303d81613001565b9050919050565b7f526174696e67206d757374206265206265747765656e203120616e6420350000600082015250565b600061307a601e8361265b565b915061308582613044565b602082019050919050565b600060208201905081810360008301526130a98161306d565b9050919050565b7f4e487b7100000000000000000000000000000000000000000000000000000000600052601160045260246000fd5b60006130ea82612754565b91507fffffffffffffffffffffffffffffffffffffffffffffffffffffffffffffffff820361311c5761311b6130b0565b5b600182019050919050565b600061313282612754565b915060008203613145576131446130b0565b5b600182039050919050565b600061315b82612754565b915061316683612754565b925082820190508082111561317e5761317d6130b0565b5b92915050565b7f4e487b7100000000000000000000000000000000000000000000000000000000600052603260045260246000fd5b7f4e487b7100000000000000000000000000000000000000000000000000000000600052601260045260246000fd5b60006131ed82612754565b91506131f883612754565b925082613208576132076131b3565b5b828204905092915050565b7f4552433732313a20696e76616c696420746f6b656e2049440000000000000000600082015250565b600061324960188361265b565b915061325482613213565b602082019050919050565b600060208201905081810360008301526132788161323c565b9050919050565b7f4552433732313a2061646472657373207a65726f206973206e6f74206120766160008201527f6c6964206f776e65720000000000000000000000000000000000000000000000602082015250565b60006132db60298361265b565b91506132e68261327f565b604082019050919050565b6000602082019050818103600083015261330a816132ce565b9050919050565b600061331c82612650565b6133268185612ebd565b935061333681856020860161266c565b80840191505092915050565b600061334e8285613311565b915061335a8284613311565b91508190509392505050565b7f4552433732313a206d696e7420746f20746865207a65726f2061646472657373600082015250565b600061339c60208361265b565b91506133a782613366565b602082019050919050565b600060208201905081810360008301526133cb8161338f565b9050919050565b7f4552433732313a20746f6b656e20616c7265616479206d696e74656400000000600082015250565b6000613408601c8361265b565b9150613413826133d2565b602082019050919050565b60006020820190508181036000830152613437816133fb565b9050919050565b7f4552433732313a207472616e736665722066726f6d20696e636f72726563742060008201527f6f776e6572000000000000000000000000000000000000000000000000000000602082015250565b600061349a60258361265b565b91506134a58261343e565b604082019050919050565b600060208201905081810360008301526134c98161348d565b9050919050565b7f4552433732313a207472616e7366657220746f20746865207a65726f2061646460008201527f7265737300000000000000000000000000000000000000000000000000000000602082015250565b600061352c60248361265b565b9150613537826134d0565b604082019050919050565b6000602082019050818103600083015261355b8161351f565b9050919050565b7f4552433732313a20617070726f766520746f2063616c6c657200000000000000600082015250565b600061359860198361265b565b91506135a382613562565b602082019050919050565b600060208201905081810360008301526135c78161358b565b9050919050565b7f4552433732313a207472616e7366657220746f206e6f6e20455243373231526560008201527f63656976657220696d706c656d656e7465720000000000000000000000000000602082015250565b600061362a60328361265b565b9150613635826135ce565b604082019050919050565b600060208201905081810360008301526136598161361d565b9050919050565b600081519050919050565b600082825260208201905092915050565b600061368782613660565b613691818561366b565b93506136a181856020860161266c565b6136aa81612696565b840191505092915050565b60006080820190506136ca60008301876127e9565b6136d760208301866127e9565b6136e4604083018561287f565b81810360608301526136f6818461367c565b905095945050505050565b600081519050613710816125c1565b92915050565b60006020828403121561372c5761372b61258b565b5b600061373a84828501613701565b9150509291505056fea264697066735822122087127864aaa17272e62ce8e1a58b1ba8405503b73f288de6ecb9a4ec1d5c68f164736f6c63430008130033",
  "immutableReferences": {},
  "source": "// SPDX-License-Identifier: UNLICENSED\n\npragma solidity ^0.8.0;\n\nimport '../node_modules/@openzeppelin/contracts/token/ERC721/ERC721.sol';\n\ncontract WaterLicense is ERC721 {\n    uint public tokenValue;\n    address payable public owner;\n    bool public isLicenseApproved;\n    uint totalVotes;\n    uint tokenId;\n    uint public waterQuality;\n    uint accountBalance;\n    address payable newOwner;\n    constructor() payable ERC721(\"WaterLicense\", \"WL\") {\n        owner = payable(msg.sender);\n        tokenValue = msg.value;\n        isLicenseApproved = false;\n        totalVotes = 0;\n        state = phase.regPh;\n        accountBalance = 0;\n    }\n\n    enum phase {regPh, votePh, donePh}\n    phase public state = phase.donePh;\n\n    struct Voter {\n        uint weight;\n        bool canVote;\n        bool isApproved;\n        uint waterQuality;\n    }\n\n    mapping(address => Voter) voters;\n\n    Voter[] public displayApprovers;\n\n    modifier onlyOwner() {\n        require(msg.sender == owner);\n        _;\n    }\n\n    modifier validLicense() {\n        require(isLicenseApproved == true);\n        _;\n    }\n\n    modifier validPhase(phase curPhase) {\n        require(state == curPhase);\n        _;\n    }\n\n    event showMint(string show);\n\n    function changePhase(phase ph) public onlyOwner {\n        require(ph > state);\n        state = ph;\n    }\n\n    function registerVoter(address voter, uint weight) public onlyOwner validPhase(phase.regPh) {\n        voters[voter].weight = weight;\n        voters[voter].canVote = true;\n    }\n\n    function castVote(bool approval, uint waterRating) public validPhase(phase.votePh) {\n        require(voters[msg.sender].canVote == true);\n        \n        if(approval) {\n            totalVotes += voters[msg.sender].weight;\n        }\n\n        displayApprovers.push(Voter(voters[msg.sender].weight, voters[msg.sender].canVote, approval, waterRating));\n\n        if(totalVotes >= 3) {\n            isLicenseApproved = true;\n            for(uint i = 0; i < displayApprovers.length; i++) {\n                waterQuality += displayApprovers[i].waterQuality;\n            }\n            waterQuality = waterQuality/displayApprovers.length;\n        }\n    }\n\n    struct buyer {\n        bool hasBought;\n        uint rating;\n    }\n\n    mapping(address => buyer) buyers;\n\n    function buyWater() public validLicense validPhase(phase.donePh) payable {\n        require(msg.value > 0);\n        accountBalance += msg.value;\n        buyers[msg.sender].hasBought = true;\n    }\n\n    function rating(uint rate) public validPhase(phase.donePh) {\n        require(buyers[msg.sender].hasBought == true);\n        require(rate >= 1 && rate <= 5, \"Rating must be between 1 and 5\");\n\n        buyers[msg.sender].rating = rate;\n        if(rate >=3)\n            tokenValue++;\n        else\n            tokenValue--;\n    }\n\n    function mintToken() public onlyOwner {\n        tokenId = waterQuality;\n        emit showMint(string(abi.encodePacked(\"Your token with token ID: \", tokenId, \" has been minted!\")));\n\t\tsuper._mint(owner, tokenId);\n\t}\n\n    function setNewOwner(address payable toAddress) public onlyOwner {\n        newOwner = toAddress;\n        safeTransferFrom(owner, newOwner, tokenId); //transfer ownership of the token\n        owner.transfer(address(this).balance);\n        owner = newOwner;\n    }\n\n    function renewLicense() public onlyOwner {\n        totalVotes = 0;\n        isLicenseApproved = false;\n        state = phase.regPh;\n    }\n}",
  "sourcePath": "/Users/rohan/Desktop/Blockchain Project/Water-License-Contract/contracts/WaterLicense.sol",
  "compiler": {
    "name": "solc",
    "version": "0.8.19+commit.7dd6d404.Emscripten.clang"
  },
  "schemaVersion": "3.4.13",
  "updatedAt": "2023-05-09T21:51:14.086Z",
  "networkType": "ethereum",
  "devdoc": {
    "events": {
      "Approval(address,address,uint256)": {
        "details": "Emitted when `owner` enables `approved` to manage the `tokenId` token."
      },
      "ApprovalForAll(address,address,bool)": {
        "details": "Emitted when `owner` enables or disables (`approved`) `operator` to manage all of its assets."
      },
      "Transfer(address,address,uint256)": {
        "details": "Emitted when `tokenId` token is transferred from `from` to `to`."
      }
    },
    "kind": "dev",
    "methods": {
      "approve(address,uint256)": {
        "details": "See {IERC721-approve}."
      },
      "balanceOf(address)": {
        "details": "See {IERC721-balanceOf}."
      },
      "getApproved(uint256)": {
        "details": "See {IERC721-getApproved}."
      },
      "isApprovedForAll(address,address)": {
        "details": "See {IERC721-isApprovedForAll}."
      },
      "name()": {
        "details": "See {IERC721Metadata-name}."
      },
      "ownerOf(uint256)": {
        "details": "See {IERC721-ownerOf}."
      },
      "safeTransferFrom(address,address,uint256)": {
        "details": "See {IERC721-safeTransferFrom}."
      },
      "safeTransferFrom(address,address,uint256,bytes)": {
        "details": "See {IERC721-safeTransferFrom}."
      },
      "setApprovalForAll(address,bool)": {
        "details": "See {IERC721-setApprovalForAll}."
      },
      "supportsInterface(bytes4)": {
        "details": "See {IERC165-supportsInterface}."
      },
      "symbol()": {
        "details": "See {IERC721Metadata-symbol}."
      },
      "tokenURI(uint256)": {
        "details": "See {IERC721Metadata-tokenURI}."
      },
      "transferFrom(address,address,uint256)": {
        "details": "See {IERC721-transferFrom}."
      }
    },
    "version": 1
  },
  "userdoc": {
    "kind": "user",
    "methods": {},
    "version": 1
  }
}