{
  "contractName": "WaterLicense",
  "abi": [
    {
      "inputs": [],
      "stateMutability": "payable",
      "type": "constructor",
      "payable": true
    },
    {
      "anonymous": false,
      "inputs": [
        {
          "indexed": true,
          "internalType": "address",
          "name": "owner",
          "type": "address"
        },
        {
          "indexed": true,
          "internalType": "address",
          "name": "approved",
          "type": "address"
        },
        {
          "indexed": true,
          "internalType": "uint256",
          "name": "tokenId",
          "type": "uint256"
        }
      ],
      "name": "Approval",
      "type": "event"
    },
    {
      "anonymous": false,
      "inputs": [
        {
          "indexed": true,
          "internalType": "address",
          "name": "owner",
          "type": "address"
        },
        {
          "indexed": true,
          "internalType": "address",
          "name": "operator",
          "type": "address"
        },
        {
          "indexed": false,
          "internalType": "bool",
          "name": "approved",
          "type": "bool"
        }
      ],
      "name": "ApprovalForAll",
      "type": "event"
    },
    {
      "anonymous": false,
      "inputs": [
        {
          "indexed": true,
          "internalType": "address",
          "name": "from",
          "type": "address"
        },
        {
          "indexed": true,
          "internalType": "address",
          "name": "to",
          "type": "address"
        },
        {
          "indexed": true,
          "internalType": "uint256",
          "name": "tokenId",
          "type": "uint256"
        }
      ],
      "name": "Transfer",
      "type": "event"
    },
    {
      "inputs": [
        {
          "internalType": "address",
          "name": "to",
          "type": "address"
        },
        {
          "internalType": "uint256",
          "name": "tokenId",
          "type": "uint256"
        }
      ],
      "name": "approve",
      "outputs": [],
      "stateMutability": "nonpayable",
      "type": "function"
    },
    {
      "inputs": [
        {
          "internalType": "address",
          "name": "owner",
          "type": "address"
        }
      ],
      "name": "balanceOf",
      "outputs": [
        {
          "internalType": "uint256",
          "name": "",
          "type": "uint256"
        }
      ],
      "stateMutability": "view",
      "type": "function",
      "constant": true
    },
    {
      "inputs": [
        {
          "internalType": "uint256",
          "name": "",
          "type": "uint256"
        }
      ],
      "name": "displayApprovers",
      "outputs": [
        {
          "internalType": "uint256",
          "name": "weight",
          "type": "uint256"
        },
        {
          "internalType": "bool",
          "name": "canVote",
          "type": "bool"
        },
        {
          "internalType": "bool",
          "name": "isApproved",
          "type": "bool"
        },
        {
          "internalType": "uint256",
          "name": "waterQuality",
          "type": "uint256"
        }
      ],
      "stateMutability": "view",
      "type": "function",
      "constant": true
    },
    {
      "inputs": [
        {
          "internalType": "uint256",
          "name": "tokenId",
          "type": "uint256"
        }
      ],
      "name": "getApproved",
      "outputs": [
        {
          "internalType": "address",
          "name": "",
          "type": "address"
        }
      ],
      "stateMutability": "view",
      "type": "function",
      "constant": true
    },
    {
      "inputs": [
        {
          "internalType": "address",
          "name": "owner",
          "type": "address"
        },
        {
          "internalType": "address",
          "name": "operator",
          "type": "address"
        }
      ],
      "name": "isApprovedForAll",
      "outputs": [
        {
          "internalType": "bool",
          "name": "",
          "type": "bool"
        }
      ],
      "stateMutability": "view",
      "type": "function",
      "constant": true
    },
    {
      "inputs": [],
      "name": "isLicenseApproved",
      "outputs": [
        {
          "internalType": "bool",
          "name": "",
          "type": "bool"
        }
      ],
      "stateMutability": "view",
      "type": "function",
      "constant": true
    },
    {
      "inputs": [],
      "name": "name",
      "outputs": [
        {
          "internalType": "string",
          "name": "",
          "type": "string"
        }
      ],
      "stateMutability": "view",
      "type": "function",
      "constant": true
    },
    {
      "inputs": [],
      "name": "owner",
      "outputs": [
        {
          "internalType": "address payable",
          "name": "",
          "type": "address"
        }
      ],
      "stateMutability": "view",
      "type": "function",
      "constant": true
    },
    {
      "inputs": [
        {
          "internalType": "uint256",
          "name": "tokenId",
          "type": "uint256"
        }
      ],
      "name": "ownerOf",
      "outputs": [
        {
          "internalType": "address",
          "name": "",
          "type": "address"
        }
      ],
      "stateMutability": "view",
      "type": "function",
      "constant": true
    },
    {
      "inputs": [
        {
          "internalType": "address",
          "name": "from",
          "type": "address"
        },
        {
          "internalType": "address",
          "name": "to",
          "type": "address"
        },
        {
          "internalType": "uint256",
          "name": "tokenId",
          "type": "uint256"
        }
      ],
      "name": "safeTransferFrom",
      "outputs": [],
      "stateMutability": "nonpayable",
      "type": "function"
    },
    {
      "inputs": [
        {
          "internalType": "address",
          "name": "from",
          "type": "address"
        },
        {
          "internalType": "address",
          "name": "to",
          "type": "address"
        },
        {
          "internalType": "uint256",
          "name": "tokenId",
          "type": "uint256"
        },
        {
          "internalType": "bytes",
          "name": "data",
          "type": "bytes"
        }
      ],
      "name": "safeTransferFrom",
      "outputs": [],
      "stateMutability": "nonpayable",
      "type": "function"
    },
    {
      "inputs": [
        {
          "internalType": "address",
          "name": "operator",
          "type": "address"
        },
        {
          "internalType": "bool",
          "name": "approved",
          "type": "bool"
        }
      ],
      "name": "setApprovalForAll",
      "outputs": [],
      "stateMutability": "nonpayable",
      "type": "function"
    },
    {
      "inputs": [],
      "name": "state",
      "outputs": [
        {
          "internalType": "enum WaterLicense.phase",
          "name": "",
          "type": "uint8"
        }
      ],
      "stateMutability": "view",
      "type": "function",
      "constant": true
    },
    {
      "inputs": [
        {
          "internalType": "bytes4",
          "name": "interfaceId",
          "type": "bytes4"
        }
      ],
      "name": "supportsInterface",
      "outputs": [
        {
          "internalType": "bool",
          "name": "",
          "type": "bool"
        }
      ],
      "stateMutability": "view",
      "type": "function",
      "constant": true
    },
    {
      "inputs": [],
      "name": "symbol",
      "outputs": [
        {
          "internalType": "string",
          "name": "",
          "type": "string"
        }
      ],
      "stateMutability": "view",
      "type": "function",
      "constant": true
    },
    {
      "inputs": [
        {
          "internalType": "uint256",
          "name": "tokenId",
          "type": "uint256"
        }
      ],
      "name": "tokenURI",
      "outputs": [
        {
          "internalType": "string",
          "name": "",
          "type": "string"
        }
      ],
      "stateMutability": "view",
      "type": "function",
      "constant": true
    },
    {
      "inputs": [],
      "name": "tokenValue",
      "outputs": [
        {
          "internalType": "uint256",
          "name": "",
          "type": "uint256"
        }
      ],
      "stateMutability": "view",
      "type": "function",
      "constant": true
    },
    {
      "inputs": [
        {
          "internalType": "address",
          "name": "from",
          "type": "address"
        },
        {
          "internalType": "address",
          "name": "to",
          "type": "address"
        },
        {
          "internalType": "uint256",
          "name": "tokenId",
          "type": "uint256"
        }
      ],
      "name": "transferFrom",
      "outputs": [],
      "stateMutability": "nonpayable",
      "type": "function"
    },
    {
      "inputs": [],
      "name": "waterQuality",
      "outputs": [
        {
          "internalType": "uint256",
          "name": "",
          "type": "uint256"
        }
      ],
      "stateMutability": "view",
      "type": "function",
      "constant": true
    },
    {
      "inputs": [
        {
          "internalType": "enum WaterLicense.phase",
          "name": "ph",
          "type": "uint8"
        }
      ],
      "name": "changePhase",
      "outputs": [],
      "stateMutability": "nonpayable",
      "type": "function"
    },
    {
      "inputs": [
        {
          "internalType": "address",
          "name": "voter",
          "type": "address"
        },
        {
          "internalType": "uint256",
          "name": "weight",
          "type": "uint256"
        }
      ],
      "name": "registerVoter",
      "outputs": [],
      "stateMutability": "nonpayable",
      "type": "function"
    },
    {
      "inputs": [
        {
          "internalType": "bool",
          "name": "approval",
          "type": "bool"
        },
        {
          "internalType": "uint256",
          "name": "waterRating",
          "type": "uint256"
        }
      ],
      "name": "castVote",
      "outputs": [],
      "stateMutability": "nonpayable",
      "type": "function"
    },
    {
      "inputs": [],
      "name": "buyWater",
      "outputs": [],
      "stateMutability": "payable",
      "type": "function",
      "payable": true
    },
    {
      "inputs": [
        {
          "internalType": "uint256",
          "name": "rate",
          "type": "uint256"
        }
      ],
      "name": "rating",
      "outputs": [],
      "stateMutability": "nonpayable",
      "type": "function"
    },
    {
      "inputs": [],
      "name": "mintToken",
      "outputs": [],
      "stateMutability": "nonpayable",
      "type": "function"
    },
    {
      "inputs": [
        {
          "internalType": "address payable",
          "name": "toAddress",
          "type": "address"
        }
      ],
      "name": "setNewOwner",
      "outputs": [],
      "stateMutability": "nonpayable",
      "type": "function"
    },
    {
      "inputs": [],
      "name": "renewLicense",
      "outputs": [],
      "stateMutability": "nonpayable",
      "type": "function"
    }
  ],
  "bytecode": "0x60806040526002600c60146101000a81548160ff021916908360028111156200002d576200002c6200016b565b5b02179055506040518060400160405280600c81526020017f57617465724c6963656e736500000000000000000000000000000000000000008152506040518060400160405280600281526020017f574c0000000000000000000000000000000000000000000000000000000000008152508160009081620000af919062000414565b508060019081620000c1919062000414565b50505033600760006101000a81548173ffffffffffffffffffffffffffffffffffffffff021916908373ffffffffffffffffffffffffffffffffffffffff160217905550346006819055506000600760146101000a81548160ff02191690831515021790555060006008819055506000600c60146101000a81548160ff021916908360028111156200015857620001576200016b565b5b02179055506000600b81905550620004fb565b7f4e487b7100000000000000000000000000000000000000000000000000000000600052602160045260246000fd5b600081519050919050565b7f4e487b7100000000000000000000000000000000000000000000000000000000600052604160045260246000fd5b7f4e487b7100000000000000000000000000000000000000000000000000000000600052602260045260246000fd5b600060028204905060018216806200021c57607f821691505b602082108103620002325762000231620001d4565b5b50919050565b60008190508160005260206000209050919050565b60006020601f8301049050919050565b600082821b905092915050565b6000600883026200029c7fffffffffffffffffffffffffffffffffffffffffffffffffffffffffffffffff826200025d565b620002a886836200025d565b95508019841693508086168417925050509392505050565b6000819050919050565b6000819050919050565b6000620002f5620002ef620002e984620002c0565b620002ca565b620002c0565b9050919050565b6000819050919050565b6200031183620002d4565b620003296200032082620002fc565b8484546200026a565b825550505050565b600090565b6200034062000331565b6200034d81848462000306565b505050565b5b8181101562000375576200036960008262000336565b60018101905062000353565b5050565b601f821115620003c4576200038e8162000238565b62000399846200024d565b81016020851015620003a9578190505b620003c1620003b8856200024d565b83018262000352565b50505b505050565b600082821c905092915050565b6000620003e960001984600802620003c9565b1980831691505092915050565b6000620004048383620003d6565b9150826002028217905092915050565b6200041f826200019a565b67ffffffffffffffff8111156200043b576200043a620001a5565b5b62000447825462000203565b6200045482828562000379565b600060209050601f8311600181146200048c576000841562000477578287015190505b620004838582620003f6565b865550620004f3565b601f1984166200049c8662000238565b60005b82811015620004c6578489015182556001820191506020850194506020810190506200049f565b86831015620004e65784890151620004e2601f891682620003d6565b8355505b6001600288020188555050505b505050505050565b613637806200050b6000396000f3fe60806040526004361061019c5760003560e01c80636aaa98a1116100ec578063c19d93fb1161008a578063cbea81ef11610064578063cbea81ef14610594578063d69ac150146105bd578063e985e9c5146105e8578063f5a1f5b4146106255761019c565b8063c19d93fb14610522578063c87b56dd1461054d578063ca8595a91461058a5761019c565b80638da5cb5b116100c65780638da5cb5b1461047a57806395d89b41146104a5578063a22cb465146104d0578063b88d4fde146104f95761019c565b80636aaa98a1146103d257806370a082311461041257806377e2d1361461044f5761019c565b80632004ffd91161015957806339b2d9e41161013357806339b2d9e41461032c5780633f2fa0301461034357806342842e0e1461036c5780636352211e146103955761019c565b80632004ffd9146102c357806323b872dd146102da57806331fd5cbc146103035761019c565b806301ffc9a7146101a157806306fdde03146101de5780630721c29714610209578063081812fc14610232578063095ea7b31461026f5780631ec7e34514610298575b600080fd5b3480156101ad57600080fd5b506101c860048036038101906101c39190612595565b61064e565b6040516101d591906125dd565b60405180910390f35b3480156101ea57600080fd5b506101f3610730565b6040516102009190612688565b60405180910390f35b34801561021557600080fd5b50610230600480360381019061022b91906126cf565b6107c2565b005b34801561023e57600080fd5b5061025960048036038101906102549190612732565b610888565b60405161026691906127a0565b60405180910390f35b34801561027b57600080fd5b50610296600480360381019061029191906127e7565b6108ce565b005b3480156102a457600080fd5b506102ad6109e5565b6040516102ba9190612836565b60405180910390f35b3480156102cf57600080fd5b506102d86109eb565b005b3480156102e657600080fd5b5061030160048036038101906102fc9190612851565b610a7e565b005b34801561030f57600080fd5b5061032a60048036038101906103259190612732565b610ade565b005b34801561033857600080fd5b50610341610c59565b005b34801561034f57600080fd5b5061036a600480360381019061036591906128d0565b610d03565b005b34801561037857600080fd5b50610393600480360381019061038e9190612851565b610fe3565b005b3480156103a157600080fd5b506103bc60048036038101906103b79190612732565b611003565b6040516103c991906127a0565b60405180910390f35b3480156103de57600080fd5b506103f960048036038101906103f49190612732565b611089565b6040516104099493929190612910565b60405180910390f35b34801561041e57600080fd5b5061043960048036038101906104349190612955565b6110e3565b6040516104469190612836565b60405180910390f35b34801561045b57600080fd5b5061046461119a565b60405161047191906125dd565b60405180910390f35b34801561048657600080fd5b5061048f6111ad565b60405161049c91906129a3565b60405180910390f35b3480156104b157600080fd5b506104ba6111d3565b6040516104c79190612688565b60405180910390f35b3480156104dc57600080fd5b506104f760048036038101906104f291906129be565b611265565b005b34801561050557600080fd5b50610520600480360381019061051b9190612b33565b61127b565b005b34801561052e57600080fd5b506105376112dd565b6040516105449190612c2d565b60405180910390f35b34801561055957600080fd5b50610574600480360381019061056f9190612732565b6112f0565b6040516105819190612688565b60405180910390f35b610592611358565b005b3480156105a057600080fd5b506105bb60048036038101906105b691906127e7565b61143d565b005b3480156105c957600080fd5b506105d261157f565b6040516105df9190612836565b60405180910390f35b3480156105f457600080fd5b5061060f600480360381019061060a9190612c48565b611585565b60405161061c91906125dd565b60405180910390f35b34801561063157600080fd5b5061064c60048036038101906106479190612cb4565b611619565b005b60007f80ac58cd000000000000000000000000000000000000000000000000000000007bffffffffffffffffffffffffffffffffffffffffffffffffffffffff1916827bffffffffffffffffffffffffffffffffffffffffffffffffffffffff1916148061071957507f5b5e139f000000000000000000000000000000000000000000000000000000007bffffffffffffffffffffffffffffffffffffffffffffffffffffffff1916827bffffffffffffffffffffffffffffffffffffffffffffffffffffffff1916145b806107295750610728826117d4565b5b9050919050565b60606000805461073f90612d10565b80601f016020809104026020016040519081016040528092919081815260200182805461076b90612d10565b80156107b85780601f1061078d576101008083540402835291602001916107b8565b820191906000526020600020905b81548152906001019060200180831161079b57829003601f168201915b5050505050905090565b600760009054906101000a900473ffffffffffffffffffffffffffffffffffffffff1673ffffffffffffffffffffffffffffffffffffffff163373ffffffffffffffffffffffffffffffffffffffff161461081c57600080fd5b600c60149054906101000a900460ff16600281111561083e5761083d612bb6565b5b81600281111561085157610850612bb6565b5b1161085b57600080fd5b80600c60146101000a81548160ff021916908360028111156108805761087f612bb6565b5b021790555050565b60006108938261183e565b6004600083815260200190815260200160002060009054906101000a900473ffffffffffffffffffffffffffffffffffffffff169050919050565b60006108d982611003565b90508073ffffffffffffffffffffffffffffffffffffffff168373ffffffffffffffffffffffffffffffffffffffff1603610949576040517f08c379a000000000000000000000000000000000000000000000000000000000815260040161094090612db3565b60405180910390fd5b8073ffffffffffffffffffffffffffffffffffffffff16610968611889565b73ffffffffffffffffffffffffffffffffffffffff161480610997575061099681610991611889565b611585565b5b6109d6576040517f08c379a00000000000000000000000000000000000000000000000000000000081526004016109cd90612e45565b60405180910390fd5b6109e08383611891565b505050565b60065481565b600760009054906101000a900473ffffffffffffffffffffffffffffffffffffffff1673ffffffffffffffffffffffffffffffffffffffff163373ffffffffffffffffffffffffffffffffffffffff1614610a4557600080fd5b600a54600981905550610a7c600760009054906101000a900473ffffffffffffffffffffffffffffffffffffffff1660095461194a565b565b610a8f610a89611889565b82611b67565b610ace576040517f08c379a0000000000000000000000000000000000000000000000000000000008152600401610ac590612ed7565b60405180910390fd5b610ad9838383611bfc565b505050565b6002806002811115610af357610af2612bb6565b5b600c60149054906101000a900460ff166002811115610b1557610b14612bb6565b5b14610b1f57600080fd5b60011515600f60003373ffffffffffffffffffffffffffffffffffffffff1673ffffffffffffffffffffffffffffffffffffffff16815260200190815260200160002060000160009054906101000a900460ff16151514610b7f57600080fd5b60018210158015610b91575060058211155b610bd0576040517f08c379a0000000000000000000000000000000000000000000000000000000008152600401610bc790612f43565b60405180910390fd5b81600f60003373ffffffffffffffffffffffffffffffffffffffff1673ffffffffffffffffffffffffffffffffffffffff1681526020019081526020016000206001018190555060038210610c3c5760066000815480929190610c3290612f92565b9190505550610c55565b60066000815480929190610c4f90612fda565b91905055505b5050565b600760009054906101000a900473ffffffffffffffffffffffffffffffffffffffff1673ffffffffffffffffffffffffffffffffffffffff163373ffffffffffffffffffffffffffffffffffffffff1614610cb357600080fd5b60006008819055506000600760146101000a81548160ff0219169083151502179055506000600c60146101000a81548160ff02191690836002811115610cfc57610cfb612bb6565b5b0217905550565b6001806002811115610d1857610d17612bb6565b5b600c60149054906101000a900460ff166002811115610d3a57610d39612bb6565b5b14610d4457600080fd5b60011515600d60003373ffffffffffffffffffffffffffffffffffffffff1673ffffffffffffffffffffffffffffffffffffffff16815260200190815260200160002060010160009054906101000a900460ff16151514610da457600080fd5b8215610e0657600d60003373ffffffffffffffffffffffffffffffffffffffff1673ffffffffffffffffffffffffffffffffffffffff1681526020019081526020016000206000015460086000828254610dfe9190613003565b925050819055505b600e6040518060800160405280600d60003373ffffffffffffffffffffffffffffffffffffffff1673ffffffffffffffffffffffffffffffffffffffff168152602001908152602001600020600001548152602001600d60003373ffffffffffffffffffffffffffffffffffffffff1673ffffffffffffffffffffffffffffffffffffffff16815260200190815260200160002060010160009054906101000a900460ff161515815260200185151581526020018481525090806001815401808255809150506001900390600052602060002090600302016000909190919091506000820151816000015560208201518160010160006101000a81548160ff02191690831515021790555060408201518160010160016101000a81548160ff021916908315150217905550606082015181600201555050600360085410610fde576001600760146101000a81548160ff02191690831515021790555060005b600e80549050811015610fc357600e8181548110610f8657610f85613037565b5b906000526020600020906003020160020154600a6000828254610fa99190613003565b925050819055508080610fbb90612f92565b915050610f65565b50600e80549050600a54610fd79190613095565b600a819055505b505050565b610ffe8383836040518060200160405280600081525061127b565b505050565b60008061100f83611ef5565b9050600073ffffffffffffffffffffffffffffffffffffffff168173ffffffffffffffffffffffffffffffffffffffff1603611080576040517f08c379a000000000000000000000000000000000000000000000000000000000815260040161107790613112565b60405180910390fd5b80915050919050565b600e818154811061109957600080fd5b90600052602060002090600302016000915090508060000154908060010160009054906101000a900460ff16908060010160019054906101000a900460ff16908060020154905084565b60008073ffffffffffffffffffffffffffffffffffffffff168273ffffffffffffffffffffffffffffffffffffffff1603611153576040517f08c379a000000000000000000000000000000000000000000000000000000000815260040161114a906131a4565b60405180910390fd5b600360008373ffffffffffffffffffffffffffffffffffffffff1673ffffffffffffffffffffffffffffffffffffffff168152602001908152602001600020549050919050565b600760149054906101000a900460ff1681565b600760009054906101000a900473ffffffffffffffffffffffffffffffffffffffff1681565b6060600180546111e290612d10565b80601f016020809104026020016040519081016040528092919081815260200182805461120e90612d10565b801561125b5780601f106112305761010080835404028352916020019161125b565b820191906000526020600020905b81548152906001019060200180831161123e57829003601f168201915b5050505050905090565b611277611270611889565b8383611f32565b5050565b61128c611286611889565b83611b67565b6112cb576040517f08c379a00000000000000000000000000000000000000000000000000000000081526004016112c290612ed7565b60405180910390fd5b6112d78484848461209e565b50505050565b600c60149054906101000a900460ff1681565b60606112fb8261183e565b60006113056120fa565b905060008151116113255760405180602001604052806000815250611350565b8061132f84612111565b604051602001611340929190613200565b6040516020818303038152906040525b915050919050565b60011515600760149054906101000a900460ff1615151461137857600080fd5b600280600281111561138d5761138c612bb6565b5b600c60149054906101000a900460ff1660028111156113af576113ae612bb6565b5b146113b957600080fd5b600034116113c657600080fd5b34600b60008282546113d89190613003565b925050819055506001600f60003373ffffffffffffffffffffffffffffffffffffffff1673ffffffffffffffffffffffffffffffffffffffff16815260200190815260200160002060000160006101000a81548160ff02191690831515021790555050565b600760009054906101000a900473ffffffffffffffffffffffffffffffffffffffff1673ffffffffffffffffffffffffffffffffffffffff163373ffffffffffffffffffffffffffffffffffffffff161461149757600080fd5b60008060028111156114ac576114ab612bb6565b5b600c60149054906101000a900460ff1660028111156114ce576114cd612bb6565b5b146114d857600080fd5b81600d60008573ffffffffffffffffffffffffffffffffffffffff1673ffffffffffffffffffffffffffffffffffffffff168152602001908152602001600020600001819055506001600d60008573ffffffffffffffffffffffffffffffffffffffff1673ffffffffffffffffffffffffffffffffffffffff16815260200190815260200160002060010160006101000a81548160ff021916908315150217905550505050565b600a5481565b6000600560008473ffffffffffffffffffffffffffffffffffffffff1673ffffffffffffffffffffffffffffffffffffffff16815260200190815260200160002060008373ffffffffffffffffffffffffffffffffffffffff1673ffffffffffffffffffffffffffffffffffffffff16815260200190815260200160002060009054906101000a900460ff16905092915050565b600760009054906101000a900473ffffffffffffffffffffffffffffffffffffffff1673ffffffffffffffffffffffffffffffffffffffff163373ffffffffffffffffffffffffffffffffffffffff161461167357600080fd5b80600c60006101000a81548173ffffffffffffffffffffffffffffffffffffffff021916908373ffffffffffffffffffffffffffffffffffffffff160217905550611705600760009054906101000a900473ffffffffffffffffffffffffffffffffffffffff16600c60009054906101000a900473ffffffffffffffffffffffffffffffffffffffff16600954610fe3565b600760009054906101000a900473ffffffffffffffffffffffffffffffffffffffff1673ffffffffffffffffffffffffffffffffffffffff166108fc479081150290604051600060405180830381858888f1935050505015801561176d573d6000803e3d6000fd5b50600c60009054906101000a900473ffffffffffffffffffffffffffffffffffffffff16600760006101000a81548173ffffffffffffffffffffffffffffffffffffffff021916908373ffffffffffffffffffffffffffffffffffffffff16021790555050565b60007f01ffc9a7000000000000000000000000000000000000000000000000000000007bffffffffffffffffffffffffffffffffffffffffffffffffffffffff1916827bffffffffffffffffffffffffffffffffffffffffffffffffffffffff1916149050919050565b611847816121df565b611886576040517f08c379a000000000000000000000000000000000000000000000000000000000815260040161187d90613112565b60405180910390fd5b50565b600033905090565b816004600083815260200190815260200160002060006101000a81548173ffffffffffffffffffffffffffffffffffffffff021916908373ffffffffffffffffffffffffffffffffffffffff160217905550808273ffffffffffffffffffffffffffffffffffffffff1661190483611003565b73ffffffffffffffffffffffffffffffffffffffff167f8c5be1e5ebec7d5bd14f71427d1e84f3dd0314c0f7b2291e5b200ac8c7c3b92560405160405180910390a45050565b600073ffffffffffffffffffffffffffffffffffffffff168273ffffffffffffffffffffffffffffffffffffffff16036119b9576040517f08c379a00000000000000000000000000000000000000000000000000000000081526004016119b090613270565b60405180910390fd5b6119c2816121df565b15611a02576040517f08c379a00000000000000000000000000000000000000000000000000000000081526004016119f9906132dc565b60405180910390fd5b611a10600083836001612220565b611a19816121df565b15611a59576040517f08c379a0000000000000000000000000000000000000000000000000000000008152600401611a50906132dc565b60405180910390fd5b6001600360008473ffffffffffffffffffffffffffffffffffffffff1673ffffffffffffffffffffffffffffffffffffffff16815260200190815260200160002060008282540192505081905550816002600083815260200190815260200160002060006101000a81548173ffffffffffffffffffffffffffffffffffffffff021916908373ffffffffffffffffffffffffffffffffffffffff160217905550808273ffffffffffffffffffffffffffffffffffffffff16600073ffffffffffffffffffffffffffffffffffffffff167fddf252ad1be2c89b69c2b068fc378daa952ba7f163c4a11628f55a4df523b3ef60405160405180910390a4611b63600083836001612226565b5050565b600080611b7383611003565b90508073ffffffffffffffffffffffffffffffffffffffff168473ffffffffffffffffffffffffffffffffffffffff161480611bb55750611bb48185611585565b5b80611bf357508373ffffffffffffffffffffffffffffffffffffffff16611bdb84610888565b73ffffffffffffffffffffffffffffffffffffffff16145b91505092915050565b8273ffffffffffffffffffffffffffffffffffffffff16611c1c82611003565b73ffffffffffffffffffffffffffffffffffffffff1614611c72576040517f08c379a0000000000000000000000000000000000000000000000000000000008152600401611c699061336e565b60405180910390fd5b600073ffffffffffffffffffffffffffffffffffffffff168273ffffffffffffffffffffffffffffffffffffffff1603611ce1576040517f08c379a0000000000000000000000000000000000000000000000000000000008152600401611cd890613400565b60405180910390fd5b611cee8383836001612220565b8273ffffffffffffffffffffffffffffffffffffffff16611d0e82611003565b73ffffffffffffffffffffffffffffffffffffffff1614611d64576040517f08c379a0000000000000000000000000000000000000000000000000000000008152600401611d5b9061336e565b60405180910390fd5b6004600082815260200190815260200160002060006101000a81549073ffffffffffffffffffffffffffffffffffffffff02191690556001600360008573ffffffffffffffffffffffffffffffffffffffff1673ffffffffffffffffffffffffffffffffffffffff168152602001908152602001600020600082825403925050819055506001600360008473ffffffffffffffffffffffffffffffffffffffff1673ffffffffffffffffffffffffffffffffffffffff16815260200190815260200160002060008282540192505081905550816002600083815260200190815260200160002060006101000a81548173ffffffffffffffffffffffffffffffffffffffff021916908373ffffffffffffffffffffffffffffffffffffffff160217905550808273ffffffffffffffffffffffffffffffffffffffff168473ffffffffffffffffffffffffffffffffffffffff167fddf252ad1be2c89b69c2b068fc378daa952ba7f163c4a11628f55a4df523b3ef60405160405180910390a4611ef08383836001612226565b505050565b60006002600083815260200190815260200160002060009054906101000a900473ffffffffffffffffffffffffffffffffffffffff169050919050565b8173ffffffffffffffffffffffffffffffffffffffff168373ffffffffffffffffffffffffffffffffffffffff1603611fa0576040517f08c379a0000000000000000000000000000000000000000000000000000000008152600401611f979061346c565b60405180910390fd5b80600560008573ffffffffffffffffffffffffffffffffffffffff1673ffffffffffffffffffffffffffffffffffffffff16815260200190815260200160002060008473ffffffffffffffffffffffffffffffffffffffff1673ffffffffffffffffffffffffffffffffffffffff16815260200190815260200160002060006101000a81548160ff0219169083151502179055508173ffffffffffffffffffffffffffffffffffffffff168373ffffffffffffffffffffffffffffffffffffffff167f17307eab39ab6107e8899845ad3d59bd9653f200f220920489ca2b5937696c318360405161209191906125dd565b60405180910390a3505050565b6120a9848484611bfc565b6120b58484848461222c565b6120f4576040517f08c379a00000000000000000000000000000000000000000000000000000000081526004016120eb906134fe565b60405180910390fd5b50505050565b606060405180602001604052806000815250905090565b606060006001612120846123b3565b01905060008167ffffffffffffffff81111561213f5761213e612a08565b5b6040519080825280601f01601f1916602001820160405280156121715781602001600182028036833780820191505090505b509050600082602001820190505b6001156121d4578080600190039150507f3031323334353637383961626364656600000000000000000000000000000000600a86061a8153600a85816121c8576121c7613066565b5b0494506000850361217f575b819350505050919050565b60008073ffffffffffffffffffffffffffffffffffffffff1661220183611ef5565b73ffffffffffffffffffffffffffffffffffffffff1614159050919050565b50505050565b50505050565b600061224d8473ffffffffffffffffffffffffffffffffffffffff16612506565b156123a6578373ffffffffffffffffffffffffffffffffffffffff1663150b7a02612276611889565b8786866040518563ffffffff1660e01b81526004016122989493929190613573565b6020604051808303816000875af19250505080156122d457506040513d601f19601f820116820180604052508101906122d191906135d4565b60015b612356573d8060008114612304576040519150601f19603f3d011682016040523d82523d6000602084013e612309565b606091505b50600081510361234e576040517f08c379a0000000000000000000000000000000000000000000000000000000008152600401612345906134fe565b60405180910390fd5b805181602001fd5b63150b7a0260e01b7bffffffffffffffffffffffffffffffffffffffffffffffffffffffff1916817bffffffffffffffffffffffffffffffffffffffffffffffffffffffff1916149150506123ab565b600190505b949350505050565b600080600090507a184f03e93ff9f4daa797ed6e38ed64bf6a1f0100000000000000008310612411577a184f03e93ff9f4daa797ed6e38ed64bf6a1f010000000000000000838161240757612406613066565b5b0492506040810190505b6d04ee2d6d415b85acef8100000000831061244e576d04ee2d6d415b85acef8100000000838161244457612443613066565b5b0492506020810190505b662386f26fc10000831061247d57662386f26fc10000838161247357612472613066565b5b0492506010810190505b6305f5e10083106124a6576305f5e100838161249c5761249b613066565b5b0492506008810190505b61271083106124cb5761271083816124c1576124c0613066565b5b0492506004810190505b606483106124ee57606483816124e4576124e3613066565b5b0492506002810190505b600a83106124fd576001810190505b80915050919050565b6000808273ffffffffffffffffffffffffffffffffffffffff163b119050919050565b6000604051905090565b600080fd5b600080fd5b60007fffffffff0000000000000000000000000000000000000000000000000000000082169050919050565b6125728161253d565b811461257d57600080fd5b50565b60008135905061258f81612569565b92915050565b6000602082840312156125ab576125aa612533565b5b60006125b984828501612580565b91505092915050565b60008115159050919050565b6125d7816125c2565b82525050565b60006020820190506125f260008301846125ce565b92915050565b600081519050919050565b600082825260208201905092915050565b60005b83811015612632578082015181840152602081019050612617565b60008484015250505050565b6000601f19601f8301169050919050565b600061265a826125f8565b6126648185612603565b9350612674818560208601612614565b61267d8161263e565b840191505092915050565b600060208201905081810360008301526126a2818461264f565b905092915050565b600381106126b757600080fd5b50565b6000813590506126c9816126aa565b92915050565b6000602082840312156126e5576126e4612533565b5b60006126f3848285016126ba565b91505092915050565b6000819050919050565b61270f816126fc565b811461271a57600080fd5b50565b60008135905061272c81612706565b92915050565b60006020828403121561274857612747612533565b5b60006127568482850161271d565b91505092915050565b600073ffffffffffffffffffffffffffffffffffffffff82169050919050565b600061278a8261275f565b9050919050565b61279a8161277f565b82525050565b60006020820190506127b56000830184612791565b92915050565b6127c48161277f565b81146127cf57600080fd5b50565b6000813590506127e1816127bb565b92915050565b600080604083850312156127fe576127fd612533565b5b600061280c858286016127d2565b925050602061281d8582860161271d565b9150509250929050565b612830816126fc565b82525050565b600060208201905061284b6000830184612827565b92915050565b60008060006060848603121561286a57612869612533565b5b6000612878868287016127d2565b9350506020612889868287016127d2565b925050604061289a8682870161271d565b9150509250925092565b6128ad816125c2565b81146128b857600080fd5b50565b6000813590506128ca816128a4565b92915050565b600080604083850312156128e7576128e6612533565b5b60006128f5858286016128bb565b92505060206129068582860161271d565b9150509250929050565b60006080820190506129256000830187612827565b61293260208301866125ce565b61293f60408301856125ce565b61294c6060830184612827565b95945050505050565b60006020828403121561296b5761296a612533565b5b6000612979848285016127d2565b91505092915050565b600061298d8261275f565b9050919050565b61299d81612982565b82525050565b60006020820190506129b86000830184612994565b92915050565b600080604083850312156129d5576129d4612533565b5b60006129e3858286016127d2565b92505060206129f4858286016128bb565b9150509250929050565b600080fd5b600080fd5b7f4e487b7100000000000000000000000000000000000000000000000000000000600052604160045260246000fd5b612a408261263e565b810181811067ffffffffffffffff82111715612a5f57612a5e612a08565b5b80604052505050565b6000612a72612529565b9050612a7e8282612a37565b919050565b600067ffffffffffffffff821115612a9e57612a9d612a08565b5b612aa78261263e565b9050602081019050919050565b82818337600083830152505050565b6000612ad6612ad184612a83565b612a68565b905082815260208101848484011115612af257612af1612a03565b5b612afd848285612ab4565b509392505050565b600082601f830112612b1a57612b196129fe565b5b8135612b2a848260208601612ac3565b91505092915050565b60008060008060808587031215612b4d57612b4c612533565b5b6000612b5b878288016127d2565b9450506020612b6c878288016127d2565b9350506040612b7d8782880161271d565b925050606085013567ffffffffffffffff811115612b9e57612b9d612538565b5b612baa87828801612b05565b91505092959194509250565b7f4e487b7100000000000000000000000000000000000000000000000000000000600052602160045260246000fd5b60038110612bf657612bf5612bb6565b5b50565b6000819050612c0782612be5565b919050565b6000612c1782612bf9565b9050919050565b612c2781612c0c565b82525050565b6000602082019050612c426000830184612c1e565b92915050565b60008060408385031215612c5f57612c5e612533565b5b6000612c6d858286016127d2565b9250506020612c7e858286016127d2565b9150509250929050565b612c9181612982565b8114612c9c57600080fd5b50565b600081359050612cae81612c88565b92915050565b600060208284031215612cca57612cc9612533565b5b6000612cd884828501612c9f565b91505092915050565b7f4e487b7100000000000000000000000000000000000000000000000000000000600052602260045260246000fd5b60006002820490506001821680612d2857607f821691505b602082108103612d3b57612d3a612ce1565b5b50919050565b7f4552433732313a20617070726f76616c20746f2063757272656e74206f776e6560008201527f7200000000000000000000000000000000000000000000000000000000000000602082015250565b6000612d9d602183612603565b9150612da882612d41565b604082019050919050565b60006020820190508181036000830152612dcc81612d90565b9050919050565b7f4552433732313a20617070726f76652063616c6c6572206973206e6f7420746f60008201527f6b656e206f776e6572206f7220617070726f76656420666f7220616c6c000000602082015250565b6000612e2f603d83612603565b9150612e3a82612dd3565b604082019050919050565b60006020820190508181036000830152612e5e81612e22565b9050919050565b7f4552433732313a2063616c6c6572206973206e6f7420746f6b656e206f776e6560008201527f72206f7220617070726f76656400000000000000000000000000000000000000602082015250565b6000612ec1602d83612603565b9150612ecc82612e65565b604082019050919050565b60006020820190508181036000830152612ef081612eb4565b9050919050565b7f526174696e67206d757374206265206265747765656e203120616e6420350000600082015250565b6000612f2d601e83612603565b9150612f3882612ef7565b602082019050919050565b60006020820190508181036000830152612f5c81612f20565b9050919050565b7f4e487b7100000000000000000000000000000000000000000000000000000000600052601160045260246000fd5b6000612f9d826126fc565b91507fffffffffffffffffffffffffffffffffffffffffffffffffffffffffffffffff8203612fcf57612fce612f63565b5b600182019050919050565b6000612fe5826126fc565b915060008203612ff857612ff7612f63565b5b600182039050919050565b600061300e826126fc565b9150613019836126fc565b925082820190508082111561303157613030612f63565b5b92915050565b7f4e487b7100000000000000000000000000000000000000000000000000000000600052603260045260246000fd5b7f4e487b7100000000000000000000000000000000000000000000000000000000600052601260045260246000fd5b60006130a0826126fc565b91506130ab836126fc565b9250826130bb576130ba613066565b5b828204905092915050565b7f4552433732313a20696e76616c696420746f6b656e2049440000000000000000600082015250565b60006130fc601883612603565b9150613107826130c6565b602082019050919050565b6000602082019050818103600083015261312b816130ef565b9050919050565b7f4552433732313a2061646472657373207a65726f206973206e6f74206120766160008201527f6c6964206f776e65720000000000000000000000000000000000000000000000602082015250565b600061318e602983612603565b915061319982613132565b604082019050919050565b600060208201905081810360008301526131bd81613181565b9050919050565b600081905092915050565b60006131da826125f8565b6131e481856131c4565b93506131f4818560208601612614565b80840191505092915050565b600061320c82856131cf565b915061321882846131cf565b91508190509392505050565b7f4552433732313a206d696e7420746f20746865207a65726f2061646472657373600082015250565b600061325a602083612603565b915061326582613224565b602082019050919050565b600060208201905081810360008301526132898161324d565b9050919050565b7f4552433732313a20746f6b656e20616c7265616479206d696e74656400000000600082015250565b60006132c6601c83612603565b91506132d182613290565b602082019050919050565b600060208201905081810360008301526132f5816132b9565b9050919050565b7f4552433732313a207472616e736665722066726f6d20696e636f72726563742060008201527f6f776e6572000000000000000000000000000000000000000000000000000000602082015250565b6000613358602583612603565b9150613363826132fc565b604082019050919050565b600060208201905081810360008301526133878161334b565b9050919050565b7f4552433732313a207472616e7366657220746f20746865207a65726f2061646460008201527f7265737300000000000000000000000000000000000000000000000000000000602082015250565b60006133ea602483612603565b91506133f58261338e565b604082019050919050565b60006020820190508181036000830152613419816133dd565b9050919050565b7f4552433732313a20617070726f766520746f2063616c6c657200000000000000600082015250565b6000613456601983612603565b915061346182613420565b602082019050919050565b6000602082019050818103600083015261348581613449565b9050919050565b7f4552433732313a207472616e7366657220746f206e6f6e20455243373231526560008201527f63656976657220696d706c656d656e7465720000000000000000000000000000602082015250565b60006134e8603283612603565b91506134f38261348c565b604082019050919050565b60006020820190508181036000830152613517816134db565b9050919050565b600081519050919050565b600082825260208201905092915050565b60006135458261351e565b61354f8185613529565b935061355f818560208601612614565b6135688161263e565b840191505092915050565b60006080820190506135886000830187612791565b6135956020830186612791565b6135a26040830185612827565b81810360608301526135b4818461353a565b905095945050505050565b6000815190506135ce81612569565b92915050565b6000602082840312156135ea576135e9612533565b5b60006135f8848285016135bf565b9150509291505056fea26469706673582212204794c828d907b0bc797f1b58d9f36f8fe045c113485851871cd06d745e9e9c2864736f6c63430008130033",
  "immutableReferences": {},
  "source": "// SPDX-License-Identifier: UNLICENSED\n\npragma solidity ^0.8.0;\n\nimport '../node_modules/@openzeppelin/contracts/token/ERC721/ERC721.sol';\n\ncontract WaterLicense is ERC721 {\n    uint public tokenValue;\n    address payable public owner;\n    bool public isLicenseApproved;\n    uint totalVotes;\n    uint tokenId;\n    uint public waterQuality;\n    uint accountBalance;\n    address payable newOwner;\n    constructor() payable ERC721(\"WaterLicense\", \"WL\") {\n        owner = payable(msg.sender);\n        tokenValue = msg.value;\n        isLicenseApproved = false;\n        totalVotes = 0;\n        state = phase.regPh;\n        accountBalance = 0;\n    }\n\n    enum phase {regPh, votePh, donePh}\n    phase public state = phase.donePh;\n\n    struct Voter {\n        uint weight;\n        bool canVote;\n        bool isApproved;\n        uint waterQuality;\n    }\n\n    mapping(address => Voter) voters;\n\n    Voter[] public displayApprovers;\n\n    modifier onlyOwner() {\n        require(msg.sender == owner);\n        _;\n    }\n\n    modifier validLicense() {\n        require(isLicenseApproved == true);\n        _;\n    }\n\n    modifier validPhase(phase curPhase) {\n        require(state == curPhase);\n        _;\n    }\n\n    function changePhase(phase ph) public onlyOwner {\n        require(ph > state);\n        state = ph;\n    }\n\n    function registerVoter(address voter, uint weight) public onlyOwner validPhase(phase.regPh) {\n        voters[voter].weight = weight;\n        voters[voter].canVote = true;\n    }\n\n    function castVote(bool approval, uint waterRating) public validPhase(phase.votePh) {\n        require(voters[msg.sender].canVote == true);\n        \n        if(approval) {\n            totalVotes += voters[msg.sender].weight;\n        }\n\n        displayApprovers.push(Voter(voters[msg.sender].weight, voters[msg.sender].canVote, approval, waterRating));\n\n        if(totalVotes >= 3) {\n            isLicenseApproved = true;\n            for(uint i = 0; i < displayApprovers.length; i++) {\n                waterQuality += displayApprovers[i].waterQuality;\n            }\n            waterQuality = waterQuality/displayApprovers.length;\n        }\n    }\n\n    struct buyer {\n        bool hasBought;\n        uint rating;\n    }\n\n    mapping(address => buyer) buyers;\n\n    function buyWater() public validLicense validPhase(phase.donePh) payable {\n        require(msg.value > 0);\n        accountBalance += msg.value;\n        buyers[msg.sender].hasBought = true;\n    }\n\n    function rating(uint rate) public validPhase(phase.donePh) {\n        require(buyers[msg.sender].hasBought == true);\n        require(rate >= 1 && rate <= 5, \"Rating must be between 1 and 5\");\n\n        buyers[msg.sender].rating = rate;\n        if(rate >=3)\n            tokenValue++;\n        else\n            tokenValue--;\n    }\n\n    function mintToken() public onlyOwner {\n        tokenId = waterQuality;\n\t\tsuper._mint(owner, tokenId);\n\t}\n\n    function setNewOwner(address payable toAddress) public onlyOwner {\n        newOwner = toAddress;\n        safeTransferFrom(owner, newOwner, tokenId); //transfer ownership of the token\n        owner.transfer(address(this).balance);\n        owner = newOwner;\n    }\n\n\t// function transferLicense() public payable {\n    //     if(msg.sender != newOwner || msg.value != tokenValue) {\n    //function transferLicense() public {\n    //    if(msg.sender != newOwner) {\n    //        revert();\n    //    }\n\n\t\t//safeTransferFrom(owner, newOwner, tokenId); //transfer ownership of the token\n        //owner.transfer(tokenValue); //transfer ethers from newOwner account to the SC and from SC to the owner\n        //owner = newOwner; //transfer ownership of the SC to the new owner\n    //}\n\n    function renewLicense() public onlyOwner {\n        totalVotes = 0;\n        isLicenseApproved = false;\n        state = phase.regPh;\n    }\n}",
  "sourcePath": "/Users/rohan/Desktop/Blockchain Project/Water-License-Contract/contracts/WaterLicense.sol",
  "compiler": {
    "name": "solc",
    "version": "0.8.19+commit.7dd6d404.Emscripten.clang"
  },
  "schemaVersion": "3.4.13",
  "updatedAt": "2023-04-29T05:19:59.659Z",
  "networkType": "ethereum",
  "devdoc": {
    "events": {
      "Approval(address,address,uint256)": {
        "details": "Emitted when `owner` enables `approved` to manage the `tokenId` token."
      },
      "ApprovalForAll(address,address,bool)": {
        "details": "Emitted when `owner` enables or disables (`approved`) `operator` to manage all of its assets."
      },
      "Transfer(address,address,uint256)": {
        "details": "Emitted when `tokenId` token is transferred from `from` to `to`."
      }
    },
    "kind": "dev",
    "methods": {
      "approve(address,uint256)": {
        "details": "See {IERC721-approve}."
      },
      "balanceOf(address)": {
        "details": "See {IERC721-balanceOf}."
      },
      "getApproved(uint256)": {
        "details": "See {IERC721-getApproved}."
      },
      "isApprovedForAll(address,address)": {
        "details": "See {IERC721-isApprovedForAll}."
      },
      "name()": {
        "details": "See {IERC721Metadata-name}."
      },
      "ownerOf(uint256)": {
        "details": "See {IERC721-ownerOf}."
      },
      "safeTransferFrom(address,address,uint256)": {
        "details": "See {IERC721-safeTransferFrom}."
      },
      "safeTransferFrom(address,address,uint256,bytes)": {
        "details": "See {IERC721-safeTransferFrom}."
      },
      "setApprovalForAll(address,bool)": {
        "details": "See {IERC721-setApprovalForAll}."
      },
      "supportsInterface(bytes4)": {
        "details": "See {IERC165-supportsInterface}."
      },
      "symbol()": {
        "details": "See {IERC721Metadata-symbol}."
      },
      "tokenURI(uint256)": {
        "details": "See {IERC721Metadata-tokenURI}."
      },
      "transferFrom(address,address,uint256)": {
        "details": "See {IERC721-transferFrom}."
      }
    },
    "version": 1
  },
  "userdoc": {
    "kind": "user",
    "methods": {},
    "version": 1
  }
}