{
  "contractName": "WaterLicense",
  "abi": [
    {
      "inputs": [],
      "stateMutability": "nonpayable",
      "type": "constructor"
    },
    {
      "anonymous": false,
      "inputs": [
        {
          "indexed": true,
          "internalType": "address",
          "name": "owner",
          "type": "address"
        },
        {
          "indexed": true,
          "internalType": "address",
          "name": "approved",
          "type": "address"
        },
        {
          "indexed": true,
          "internalType": "uint256",
          "name": "tokenId",
          "type": "uint256"
        }
      ],
      "name": "Approval",
      "type": "event"
    },
    {
      "anonymous": false,
      "inputs": [
        {
          "indexed": true,
          "internalType": "address",
          "name": "owner",
          "type": "address"
        },
        {
          "indexed": true,
          "internalType": "address",
          "name": "operator",
          "type": "address"
        },
        {
          "indexed": false,
          "internalType": "bool",
          "name": "approved",
          "type": "bool"
        }
      ],
      "name": "ApprovalForAll",
      "type": "event"
    },
    {
      "anonymous": false,
      "inputs": [
        {
          "indexed": true,
          "internalType": "address",
          "name": "from",
          "type": "address"
        },
        {
          "indexed": true,
          "internalType": "address",
          "name": "to",
          "type": "address"
        },
        {
          "indexed": true,
          "internalType": "uint256",
          "name": "tokenId",
          "type": "uint256"
        }
      ],
      "name": "Transfer",
      "type": "event"
    },
    {
      "inputs": [
        {
          "internalType": "address",
          "name": "to",
          "type": "address"
        },
        {
          "internalType": "uint256",
          "name": "tokenId",
          "type": "uint256"
        }
      ],
      "name": "approve",
      "outputs": [],
      "stateMutability": "nonpayable",
      "type": "function"
    },
    {
      "inputs": [
        {
          "internalType": "address",
          "name": "owner",
          "type": "address"
        }
      ],
      "name": "balanceOf",
      "outputs": [
        {
          "internalType": "uint256",
          "name": "",
          "type": "uint256"
        }
      ],
      "stateMutability": "view",
      "type": "function",
      "constant": true
    },
    {
      "inputs": [
        {
          "internalType": "uint256",
          "name": "tokenId",
          "type": "uint256"
        }
      ],
      "name": "getApproved",
      "outputs": [
        {
          "internalType": "address",
          "name": "",
          "type": "address"
        }
      ],
      "stateMutability": "view",
      "type": "function",
      "constant": true
    },
    {
      "inputs": [
        {
          "internalType": "address",
          "name": "owner",
          "type": "address"
        },
        {
          "internalType": "address",
          "name": "operator",
          "type": "address"
        }
      ],
      "name": "isApprovedForAll",
      "outputs": [
        {
          "internalType": "bool",
          "name": "",
          "type": "bool"
        }
      ],
      "stateMutability": "view",
      "type": "function",
      "constant": true
    },
    {
      "inputs": [],
      "name": "isLicenseApproved",
      "outputs": [
        {
          "internalType": "bool",
          "name": "",
          "type": "bool"
        }
      ],
      "stateMutability": "view",
      "type": "function",
      "constant": true
    },
    {
      "inputs": [],
      "name": "name",
      "outputs": [
        {
          "internalType": "string",
          "name": "",
          "type": "string"
        }
      ],
      "stateMutability": "view",
      "type": "function",
      "constant": true
    },
    {
      "inputs": [
        {
          "internalType": "uint256",
          "name": "tokenId",
          "type": "uint256"
        }
      ],
      "name": "ownerOf",
      "outputs": [
        {
          "internalType": "address",
          "name": "",
          "type": "address"
        }
      ],
      "stateMutability": "view",
      "type": "function",
      "constant": true
    },
    {
      "inputs": [
        {
          "internalType": "address",
          "name": "from",
          "type": "address"
        },
        {
          "internalType": "address",
          "name": "to",
          "type": "address"
        },
        {
          "internalType": "uint256",
          "name": "tokenId",
          "type": "uint256"
        }
      ],
      "name": "safeTransferFrom",
      "outputs": [],
      "stateMutability": "nonpayable",
      "type": "function"
    },
    {
      "inputs": [
        {
          "internalType": "address",
          "name": "from",
          "type": "address"
        },
        {
          "internalType": "address",
          "name": "to",
          "type": "address"
        },
        {
          "internalType": "uint256",
          "name": "tokenId",
          "type": "uint256"
        },
        {
          "internalType": "bytes",
          "name": "data",
          "type": "bytes"
        }
      ],
      "name": "safeTransferFrom",
      "outputs": [],
      "stateMutability": "nonpayable",
      "type": "function"
    },
    {
      "inputs": [
        {
          "internalType": "address",
          "name": "operator",
          "type": "address"
        },
        {
          "internalType": "bool",
          "name": "approved",
          "type": "bool"
        }
      ],
      "name": "setApprovalForAll",
      "outputs": [],
      "stateMutability": "nonpayable",
      "type": "function"
    },
    {
      "inputs": [
        {
          "internalType": "bytes4",
          "name": "interfaceId",
          "type": "bytes4"
        }
      ],
      "name": "supportsInterface",
      "outputs": [
        {
          "internalType": "bool",
          "name": "",
          "type": "bool"
        }
      ],
      "stateMutability": "view",
      "type": "function",
      "constant": true
    },
    {
      "inputs": [],
      "name": "symbol",
      "outputs": [
        {
          "internalType": "string",
          "name": "",
          "type": "string"
        }
      ],
      "stateMutability": "view",
      "type": "function",
      "constant": true
    },
    {
      "inputs": [
        {
          "internalType": "uint256",
          "name": "tokenId",
          "type": "uint256"
        }
      ],
      "name": "tokenURI",
      "outputs": [
        {
          "internalType": "string",
          "name": "",
          "type": "string"
        }
      ],
      "stateMutability": "view",
      "type": "function",
      "constant": true
    },
    {
      "inputs": [],
      "name": "tokenValue",
      "outputs": [
        {
          "internalType": "uint256",
          "name": "",
          "type": "uint256"
        }
      ],
      "stateMutability": "view",
      "type": "function",
      "constant": true
    },
    {
      "inputs": [
        {
          "internalType": "address",
          "name": "from",
          "type": "address"
        },
        {
          "internalType": "address",
          "name": "to",
          "type": "address"
        },
        {
          "internalType": "uint256",
          "name": "tokenId",
          "type": "uint256"
        }
      ],
      "name": "transferFrom",
      "outputs": [],
      "stateMutability": "nonpayable",
      "type": "function"
    },
    {
      "inputs": [
        {
          "internalType": "address",
          "name": "voter",
          "type": "address"
        },
        {
          "internalType": "uint256",
          "name": "weight",
          "type": "uint256"
        }
      ],
      "name": "registerVoter",
      "outputs": [],
      "stateMutability": "nonpayable",
      "type": "function"
    },
    {
      "inputs": [
        {
          "internalType": "string",
          "name": "name",
          "type": "string"
        },
        {
          "internalType": "string",
          "name": "email",
          "type": "string"
        }
      ],
      "name": "castVote",
      "outputs": [
        {
          "internalType": "uint256",
          "name": "",
          "type": "uint256"
        }
      ],
      "stateMutability": "nonpayable",
      "type": "function"
    },
    {
      "inputs": [],
      "name": "buyWater",
      "outputs": [],
      "stateMutability": "nonpayable",
      "type": "function"
    },
    {
      "inputs": [
        {
          "internalType": "address",
          "name": "reviewer",
          "type": "address"
        },
        {
          "internalType": "uint256",
          "name": "rate",
          "type": "uint256"
        }
      ],
      "name": "rating",
      "outputs": [],
      "stateMutability": "nonpayable",
      "type": "function"
    },
    {
      "inputs": [
        {
          "internalType": "uint256",
          "name": "tokenId",
          "type": "uint256"
        }
      ],
      "name": "mint",
      "outputs": [],
      "stateMutability": "nonpayable",
      "type": "function"
    },
    {
      "inputs": [
        {
          "internalType": "address",
          "name": "starOwner",
          "type": "address"
        },
        {
          "internalType": "address",
          "name": "to",
          "type": "address"
        },
        {
          "internalType": "uint256",
          "name": "tokenId",
          "type": "uint256"
        }
      ],
      "name": "transferStar",
      "outputs": [],
      "stateMutability": "nonpayable",
      "type": "function"
    },
    {
      "inputs": [
        {
          "internalType": "string",
          "name": "name",
          "type": "string"
        },
        {
          "internalType": "string",
          "name": "email",
          "type": "string"
        }
      ],
      "name": "renewLicense",
      "outputs": [],
      "stateMutability": "nonpayable",
      "type": "function"
    }
  ],
  "bytecode": "0x60806040523480156200001157600080fd5b506040518060400160405280600c81526020017f57617465724c6963656e736500000000000000000000000000000000000000008152506040518060400160405280600281526020017f574c00000000000000000000000000000000000000000000000000000000000081525081600090816200008f919062000388565b508060019081620000a1919062000388565b50505033600760006101000a81548173ffffffffffffffffffffffffffffffffffffffff021916908373ffffffffffffffffffffffffffffffffffffffff16021790555060646006819055506000600760146101000a81548160ff0219169083151502179055506200046f565b600081519050919050565b7f4e487b7100000000000000000000000000000000000000000000000000000000600052604160045260246000fd5b7f4e487b7100000000000000000000000000000000000000000000000000000000600052602260045260246000fd5b600060028204905060018216806200019057607f821691505b602082108103620001a657620001a562000148565b5b50919050565b60008190508160005260206000209050919050565b60006020601f8301049050919050565b600082821b905092915050565b600060088302620002107fffffffffffffffffffffffffffffffffffffffffffffffffffffffffffffffff82620001d1565b6200021c8683620001d1565b95508019841693508086168417925050509392505050565b6000819050919050565b6000819050919050565b600062000269620002636200025d8462000234565b6200023e565b62000234565b9050919050565b6000819050919050565b620002858362000248565b6200029d620002948262000270565b848454620001de565b825550505050565b600090565b620002b4620002a5565b620002c18184846200027a565b505050565b5b81811015620002e957620002dd600082620002aa565b600181019050620002c7565b5050565b601f82111562000338576200030281620001ac565b6200030d84620001c1565b810160208510156200031d578190505b620003356200032c85620001c1565b830182620002c6565b50505b505050565b600082821c905092915050565b60006200035d600019846008026200033d565b1980831691505092915050565b60006200037883836200034a565b9150826002028217905092915050565b62000393826200010e565b67ffffffffffffffff811115620003af57620003ae62000119565b5b620003bb825462000177565b620003c8828285620002ed565b600060209050601f831160018114620004005760008415620003eb578287015190505b620003f785826200036a565b86555062000467565b601f1984166200041086620001ac565b60005b828110156200043a5784890151825560018201915060208501945060208101905062000413565b868310156200045a578489015162000456601f8916826200034a565b8355505b6001600288020188555050505b505050505050565b612f64806200047f6000396000f3fe608060405234801561001057600080fd5b50600436106101425760003560e01c806395d89b41116100b8578063c87b56dd1161007c578063c87b56dd14610373578063ca8595a9146103a3578063cbea81ef146103ad578063cf6cfd44146103c9578063d311ea43146103e5578063e985e9c51461040157610142565b806395d89b41146102d1578063a0712d68146102ef578063a22cb4651461030b578063b88d4fde14610327578063c479fc911461034357610142565b806323b872dd1161010a57806323b872dd146101ff57806337706d0c1461021b57806342842e0e146102375780636352211e1461025357806370a082311461028357806377e2d136146102b357610142565b806301ffc9a71461014757806306fdde0314610177578063081812fc14610195578063095ea7b3146101c55780631ec7e345146101e1575b600080fd5b610161600480360381019061015c9190611df5565b610431565b60405161016e9190611e3d565b60405180910390f35b61017f610513565b60405161018c9190611ee8565b60405180910390f35b6101af60048036038101906101aa9190611f40565b6105a5565b6040516101bc9190611fae565b60405180910390f35b6101df60048036038101906101da9190611ff5565b6105eb565b005b6101e9610702565b6040516101f69190612044565b60405180910390f35b6102196004803603810190610214919061205f565b610708565b005b6102356004803603810190610230919061205f565b610768565b005b610251600480360381019061024c919061205f565b6107d2565b005b61026d60048036038101906102689190611f40565b6107f2565b60405161027a9190611fae565b60405180910390f35b61029d600480360381019061029891906120b2565b610878565b6040516102aa9190612044565b60405180910390f35b6102bb61092f565b6040516102c89190611e3d565b60405180910390f35b6102d9610942565b6040516102e69190611ee8565b60405180910390f35b61030960048036038101906103049190611f40565b6109d4565b005b6103256004803603810190610320919061210b565b610a3b565b005b610341600480360381019061033c9190612280565b610a51565b005b61035d600480360381019061035891906123a4565b610ab3565b60405161036a9190612044565b60405180910390f35b61038d60048036038101906103889190611f40565b610c41565b60405161039a9190611ee8565b60405180910390f35b6103ab610ca9565b005b6103c760048036038101906103c29190611ff5565b610d06565b005b6103e360048036038101906103de91906123a4565b610e06565b005b6103ff60048036038101906103fa9190611ff5565b610eb7565b005b61041b6004803603810190610416919061241c565b610fa0565b6040516104289190611e3d565b60405180910390f35b60007f80ac58cd000000000000000000000000000000000000000000000000000000007bffffffffffffffffffffffffffffffffffffffffffffffffffffffff1916827bffffffffffffffffffffffffffffffffffffffffffffffffffffffff191614806104fc57507f5b5e139f000000000000000000000000000000000000000000000000000000007bffffffffffffffffffffffffffffffffffffffffffffffffffffffff1916827bffffffffffffffffffffffffffffffffffffffffffffffffffffffff1916145b8061050c575061050b82611034565b5b9050919050565b6060600080546105229061248b565b80601f016020809104026020016040519081016040528092919081815260200182805461054e9061248b565b801561059b5780601f106105705761010080835404028352916020019161059b565b820191906000526020600020905b81548152906001019060200180831161057e57829003601f168201915b5050505050905090565b60006105b08261109e565b6004600083815260200190815260200160002060009054906101000a900473ffffffffffffffffffffffffffffffffffffffff169050919050565b60006105f6826107f2565b90508073ffffffffffffffffffffffffffffffffffffffff168373ffffffffffffffffffffffffffffffffffffffff1603610666576040517f08c379a000000000000000000000000000000000000000000000000000000000815260040161065d9061252e565b60405180910390fd5b8073ffffffffffffffffffffffffffffffffffffffff166106856110e9565b73ffffffffffffffffffffffffffffffffffffffff1614806106b457506106b3816106ae6110e9565b610fa0565b5b6106f3576040517f08c379a00000000000000000000000000000000000000000000000000000000081526004016106ea906125c0565b60405180910390fd5b6106fd83836110f1565b505050565b60065481565b6107196107136110e9565b826111aa565b610758576040517f08c379a000000000000000000000000000000000000000000000000000000000815260040161074f90612652565b60405180910390fd5b61076383838361123f565b505050565b600760009054906101000a900473ffffffffffffffffffffffffffffffffffffffff1673ffffffffffffffffffffffffffffffffffffffff163373ffffffffffffffffffffffffffffffffffffffff16146107c257600080fd5b6107cd8383836107d2565b505050565b6107ed83838360405180602001604052806000815250610a51565b505050565b6000806107fe83611538565b9050600073ffffffffffffffffffffffffffffffffffffffff168173ffffffffffffffffffffffffffffffffffffffff160361086f576040517f08c379a0000000000000000000000000000000000000000000000000000000008152600401610866906126be565b60405180910390fd5b80915050919050565b60008073ffffffffffffffffffffffffffffffffffffffff168273ffffffffffffffffffffffffffffffffffffffff16036108e8576040517f08c379a00000000000000000000000000000000000000000000000000000000081526004016108df90612750565b60405180910390fd5b600360008373ffffffffffffffffffffffffffffffffffffffff1673ffffffffffffffffffffffffffffffffffffffff168152602001908152602001600020549050919050565b600760149054906101000a900460ff1681565b6060600180546109519061248b565b80601f016020809104026020016040519081016040528092919081815260200182805461097d9061248b565b80156109ca5780601f1061099f576101008083540402835291602001916109ca565b820191906000526020600020905b8154815290600101906020018083116109ad57829003601f168201915b5050505050905090565b600760009054906101000a900473ffffffffffffffffffffffffffffffffffffffff1673ffffffffffffffffffffffffffffffffffffffff163373ffffffffffffffffffffffffffffffffffffffff1614610a2e57600080fd5b610a383382611575565b50565b610a4d610a466110e9565b8383611792565b5050565b610a62610a5c6110e9565b836111aa565b610aa1576040517f08c379a0000000000000000000000000000000000000000000000000000000008152600401610a9890612652565b60405180910390fd5b610aad848484846118fe565b50505050565b600060011515600860003373ffffffffffffffffffffffffffffffffffffffff1673ffffffffffffffffffffffffffffffffffffffff16815260200190815260200160002060030160009054906101000a900460ff16151514610b1557600080fd5b82600860003373ffffffffffffffffffffffffffffffffffffffff1673ffffffffffffffffffffffffffffffffffffffff1681526020019081526020016000206000019081610b64919061291c565b5081600860003373ffffffffffffffffffffffffffffffffffffffff1673ffffffffffffffffffffffffffffffffffffffff1681526020019081526020016000206001019081610bb4919061291c565b50600860003373ffffffffffffffffffffffffffffffffffffffff1673ffffffffffffffffffffffffffffffffffffffff1681526020019081526020016000206002015460096000828254610c099190612a1d565b92505081905550600360095410610c36576001600760146101000a81548160ff0219169083151502179055505b600954905092915050565b6060610c4c8261109e565b6000610c5661195a565b90506000815111610c765760405180602001604052806000815250610ca1565b80610c8084611971565b604051602001610c91929190612a8d565b6040516020818303038152906040525b915050919050565b6001600a60003373ffffffffffffffffffffffffffffffffffffffff1673ffffffffffffffffffffffffffffffffffffffff16815260200190815260200160002060000160006101000a81548160ff021916908315150217905550565b600760009054906101000a900473ffffffffffffffffffffffffffffffffffffffff1673ffffffffffffffffffffffffffffffffffffffff163373ffffffffffffffffffffffffffffffffffffffff1614610d6057600080fd5b80600860008473ffffffffffffffffffffffffffffffffffffffff1673ffffffffffffffffffffffffffffffffffffffff168152602001908152602001600020600201819055506001600860008473ffffffffffffffffffffffffffffffffffffffff1673ffffffffffffffffffffffffffffffffffffffff16815260200190815260200160002060030160006101000a81548160ff0219169083151502179055505050565b600760009054906101000a900473ffffffffffffffffffffffffffffffffffffffff1673ffffffffffffffffffffffffffffffffffffffff163373ffffffffffffffffffffffffffffffffffffffff1614610e6057600080fd5b6000610e6c8383610ab3565b905060038110610e96576001600760146101000a81548160ff021916908315150217905550610eb2565b6000600760146101000a81548160ff0219169083151502179055505b505050565b60011515600a60008473ffffffffffffffffffffffffffffffffffffffff1673ffffffffffffffffffffffffffffffffffffffff16815260200190815260200160002060000160009054906101000a900460ff16151514610f1757600080fd5b80600a60008473ffffffffffffffffffffffffffffffffffffffff1673ffffffffffffffffffffffffffffffffffffffff1681526020019081526020016000206001018190555060038110610f835760066000815480929190610f7990612ab1565b9190505550610f9c565b60066000815480929190610f9690612af9565b91905055505b5050565b6000600560008473ffffffffffffffffffffffffffffffffffffffff1673ffffffffffffffffffffffffffffffffffffffff16815260200190815260200160002060008373ffffffffffffffffffffffffffffffffffffffff1673ffffffffffffffffffffffffffffffffffffffff16815260200190815260200160002060009054906101000a900460ff16905092915050565b60007f01ffc9a7000000000000000000000000000000000000000000000000000000007bffffffffffffffffffffffffffffffffffffffffffffffffffffffff1916827bffffffffffffffffffffffffffffffffffffffffffffffffffffffff1916149050919050565b6110a781611a3f565b6110e6576040517f08c379a00000000000000000000000000000000000000000000000000000000081526004016110dd906126be565b60405180910390fd5b50565b600033905090565b816004600083815260200190815260200160002060006101000a81548173ffffffffffffffffffffffffffffffffffffffff021916908373ffffffffffffffffffffffffffffffffffffffff160217905550808273ffffffffffffffffffffffffffffffffffffffff16611164836107f2565b73ffffffffffffffffffffffffffffffffffffffff167f8c5be1e5ebec7d5bd14f71427d1e84f3dd0314c0f7b2291e5b200ac8c7c3b92560405160405180910390a45050565b6000806111b6836107f2565b90508073ffffffffffffffffffffffffffffffffffffffff168473ffffffffffffffffffffffffffffffffffffffff1614806111f857506111f78185610fa0565b5b8061123657508373ffffffffffffffffffffffffffffffffffffffff1661121e846105a5565b73ffffffffffffffffffffffffffffffffffffffff16145b91505092915050565b8273ffffffffffffffffffffffffffffffffffffffff1661125f826107f2565b73ffffffffffffffffffffffffffffffffffffffff16146112b5576040517f08c379a00000000000000000000000000000000000000000000000000000000081526004016112ac90612b94565b60405180910390fd5b600073ffffffffffffffffffffffffffffffffffffffff168273ffffffffffffffffffffffffffffffffffffffff1603611324576040517f08c379a000000000000000000000000000000000000000000000000000000000815260040161131b90612c26565b60405180910390fd5b6113318383836001611a80565b8273ffffffffffffffffffffffffffffffffffffffff16611351826107f2565b73ffffffffffffffffffffffffffffffffffffffff16146113a7576040517f08c379a000000000000000000000000000000000000000000000000000000000815260040161139e90612b94565b60405180910390fd5b6004600082815260200190815260200160002060006101000a81549073ffffffffffffffffffffffffffffffffffffffff02191690556001600360008573ffffffffffffffffffffffffffffffffffffffff1673ffffffffffffffffffffffffffffffffffffffff168152602001908152602001600020600082825403925050819055506001600360008473ffffffffffffffffffffffffffffffffffffffff1673ffffffffffffffffffffffffffffffffffffffff16815260200190815260200160002060008282540192505081905550816002600083815260200190815260200160002060006101000a81548173ffffffffffffffffffffffffffffffffffffffff021916908373ffffffffffffffffffffffffffffffffffffffff160217905550808273ffffffffffffffffffffffffffffffffffffffff168473ffffffffffffffffffffffffffffffffffffffff167fddf252ad1be2c89b69c2b068fc378daa952ba7f163c4a11628f55a4df523b3ef60405160405180910390a46115338383836001611a86565b505050565b60006002600083815260200190815260200160002060009054906101000a900473ffffffffffffffffffffffffffffffffffffffff169050919050565b600073ffffffffffffffffffffffffffffffffffffffff168273ffffffffffffffffffffffffffffffffffffffff16036115e4576040517f08c379a00000000000000000000000000000000000000000000000000000000081526004016115db90612c92565b60405180910390fd5b6115ed81611a3f565b1561162d576040517f08c379a000000000000000000000000000000000000000000000000000000000815260040161162490612cfe565b60405180910390fd5b61163b600083836001611a80565b61164481611a3f565b15611684576040517f08c379a000000000000000000000000000000000000000000000000000000000815260040161167b90612cfe565b60405180910390fd5b6001600360008473ffffffffffffffffffffffffffffffffffffffff1673ffffffffffffffffffffffffffffffffffffffff16815260200190815260200160002060008282540192505081905550816002600083815260200190815260200160002060006101000a81548173ffffffffffffffffffffffffffffffffffffffff021916908373ffffffffffffffffffffffffffffffffffffffff160217905550808273ffffffffffffffffffffffffffffffffffffffff16600073ffffffffffffffffffffffffffffffffffffffff167fddf252ad1be2c89b69c2b068fc378daa952ba7f163c4a11628f55a4df523b3ef60405160405180910390a461178e600083836001611a86565b5050565b8173ffffffffffffffffffffffffffffffffffffffff168373ffffffffffffffffffffffffffffffffffffffff1603611800576040517f08c379a00000000000000000000000000000000000000000000000000000000081526004016117f790612d6a565b60405180910390fd5b80600560008573ffffffffffffffffffffffffffffffffffffffff1673ffffffffffffffffffffffffffffffffffffffff16815260200190815260200160002060008473ffffffffffffffffffffffffffffffffffffffff1673ffffffffffffffffffffffffffffffffffffffff16815260200190815260200160002060006101000a81548160ff0219169083151502179055508173ffffffffffffffffffffffffffffffffffffffff168373ffffffffffffffffffffffffffffffffffffffff167f17307eab39ab6107e8899845ad3d59bd9653f200f220920489ca2b5937696c31836040516118f19190611e3d565b60405180910390a3505050565b61190984848461123f565b61191584848484611a8c565b611954576040517f08c379a000000000000000000000000000000000000000000000000000000000815260040161194b90612dfc565b60405180910390fd5b50505050565b606060405180602001604052806000815250905090565b60606000600161198084611c13565b01905060008167ffffffffffffffff81111561199f5761199e612155565b5b6040519080825280601f01601f1916602001820160405280156119d15781602001600182028036833780820191505090505b509050600082602001820190505b600115611a34578080600190039150507f3031323334353637383961626364656600000000000000000000000000000000600a86061a8153600a8581611a2857611a27612e1c565b5b049450600085036119df575b819350505050919050565b60008073ffffffffffffffffffffffffffffffffffffffff16611a6183611538565b73ffffffffffffffffffffffffffffffffffffffff1614159050919050565b50505050565b50505050565b6000611aad8473ffffffffffffffffffffffffffffffffffffffff16611d66565b15611c06578373ffffffffffffffffffffffffffffffffffffffff1663150b7a02611ad66110e9565b8786866040518563ffffffff1660e01b8152600401611af89493929190612ea0565b6020604051808303816000875af1925050508015611b3457506040513d601f19601f82011682018060405250810190611b319190612f01565b60015b611bb6573d8060008114611b64576040519150601f19603f3d011682016040523d82523d6000602084013e611b69565b606091505b506000815103611bae576040517f08c379a0000000000000000000000000000000000000000000000000000000008152600401611ba590612dfc565b60405180910390fd5b805181602001fd5b63150b7a0260e01b7bffffffffffffffffffffffffffffffffffffffffffffffffffffffff1916817bffffffffffffffffffffffffffffffffffffffffffffffffffffffff191614915050611c0b565b600190505b949350505050565b600080600090507a184f03e93ff9f4daa797ed6e38ed64bf6a1f0100000000000000008310611c71577a184f03e93ff9f4daa797ed6e38ed64bf6a1f0100000000000000008381611c6757611c66612e1c565b5b0492506040810190505b6d04ee2d6d415b85acef81000000008310611cae576d04ee2d6d415b85acef81000000008381611ca457611ca3612e1c565b5b0492506020810190505b662386f26fc100008310611cdd57662386f26fc100008381611cd357611cd2612e1c565b5b0492506010810190505b6305f5e1008310611d06576305f5e1008381611cfc57611cfb612e1c565b5b0492506008810190505b6127108310611d2b576127108381611d2157611d20612e1c565b5b0492506004810190505b60648310611d4e5760648381611d4457611d43612e1c565b5b0492506002810190505b600a8310611d5d576001810190505b80915050919050565b6000808273ffffffffffffffffffffffffffffffffffffffff163b119050919050565b6000604051905090565b600080fd5b600080fd5b60007fffffffff0000000000000000000000000000000000000000000000000000000082169050919050565b611dd281611d9d565b8114611ddd57600080fd5b50565b600081359050611def81611dc9565b92915050565b600060208284031215611e0b57611e0a611d93565b5b6000611e1984828501611de0565b91505092915050565b60008115159050919050565b611e3781611e22565b82525050565b6000602082019050611e526000830184611e2e565b92915050565b600081519050919050565b600082825260208201905092915050565b60005b83811015611e92578082015181840152602081019050611e77565b60008484015250505050565b6000601f19601f8301169050919050565b6000611eba82611e58565b611ec48185611e63565b9350611ed4818560208601611e74565b611edd81611e9e565b840191505092915050565b60006020820190508181036000830152611f028184611eaf565b905092915050565b6000819050919050565b611f1d81611f0a565b8114611f2857600080fd5b50565b600081359050611f3a81611f14565b92915050565b600060208284031215611f5657611f55611d93565b5b6000611f6484828501611f2b565b91505092915050565b600073ffffffffffffffffffffffffffffffffffffffff82169050919050565b6000611f9882611f6d565b9050919050565b611fa881611f8d565b82525050565b6000602082019050611fc36000830184611f9f565b92915050565b611fd281611f8d565b8114611fdd57600080fd5b50565b600081359050611fef81611fc9565b92915050565b6000806040838503121561200c5761200b611d93565b5b600061201a85828601611fe0565b925050602061202b85828601611f2b565b9150509250929050565b61203e81611f0a565b82525050565b60006020820190506120596000830184612035565b92915050565b60008060006060848603121561207857612077611d93565b5b600061208686828701611fe0565b935050602061209786828701611fe0565b92505060406120a886828701611f2b565b9150509250925092565b6000602082840312156120c8576120c7611d93565b5b60006120d684828501611fe0565b91505092915050565b6120e881611e22565b81146120f357600080fd5b50565b600081359050612105816120df565b92915050565b6000806040838503121561212257612121611d93565b5b600061213085828601611fe0565b9250506020612141858286016120f6565b9150509250929050565b600080fd5b600080fd5b7f4e487b7100000000000000000000000000000000000000000000000000000000600052604160045260246000fd5b61218d82611e9e565b810181811067ffffffffffffffff821117156121ac576121ab612155565b5b80604052505050565b60006121bf611d89565b90506121cb8282612184565b919050565b600067ffffffffffffffff8211156121eb576121ea612155565b5b6121f482611e9e565b9050602081019050919050565b82818337600083830152505050565b600061222361221e846121d0565b6121b5565b90508281526020810184848401111561223f5761223e612150565b5b61224a848285612201565b509392505050565b600082601f8301126122675761226661214b565b5b8135612277848260208601612210565b91505092915050565b6000806000806080858703121561229a57612299611d93565b5b60006122a887828801611fe0565b94505060206122b987828801611fe0565b93505060406122ca87828801611f2b565b925050606085013567ffffffffffffffff8111156122eb576122ea611d98565b5b6122f787828801612252565b91505092959194509250565b600067ffffffffffffffff82111561231e5761231d612155565b5b61232782611e9e565b9050602081019050919050565b600061234761234284612303565b6121b5565b90508281526020810184848401111561236357612362612150565b5b61236e848285612201565b509392505050565b600082601f83011261238b5761238a61214b565b5b813561239b848260208601612334565b91505092915050565b600080604083850312156123bb576123ba611d93565b5b600083013567ffffffffffffffff8111156123d9576123d8611d98565b5b6123e585828601612376565b925050602083013567ffffffffffffffff81111561240657612405611d98565b5b61241285828601612376565b9150509250929050565b6000806040838503121561243357612432611d93565b5b600061244185828601611fe0565b925050602061245285828601611fe0565b9150509250929050565b7f4e487b7100000000000000000000000000000000000000000000000000000000600052602260045260246000fd5b600060028204905060018216806124a357607f821691505b6020821081036124b6576124b561245c565b5b50919050565b7f4552433732313a20617070726f76616c20746f2063757272656e74206f776e6560008201527f7200000000000000000000000000000000000000000000000000000000000000602082015250565b6000612518602183611e63565b9150612523826124bc565b604082019050919050565b600060208201905081810360008301526125478161250b565b9050919050565b7f4552433732313a20617070726f76652063616c6c6572206973206e6f7420746f60008201527f6b656e206f776e6572206f7220617070726f76656420666f7220616c6c000000602082015250565b60006125aa603d83611e63565b91506125b58261254e565b604082019050919050565b600060208201905081810360008301526125d98161259d565b9050919050565b7f4552433732313a2063616c6c6572206973206e6f7420746f6b656e206f776e6560008201527f72206f7220617070726f76656400000000000000000000000000000000000000602082015250565b600061263c602d83611e63565b9150612647826125e0565b604082019050919050565b6000602082019050818103600083015261266b8161262f565b9050919050565b7f4552433732313a20696e76616c696420746f6b656e2049440000000000000000600082015250565b60006126a8601883611e63565b91506126b382612672565b602082019050919050565b600060208201905081810360008301526126d78161269b565b9050919050565b7f4552433732313a2061646472657373207a65726f206973206e6f74206120766160008201527f6c6964206f776e65720000000000000000000000000000000000000000000000602082015250565b600061273a602983611e63565b9150612745826126de565b604082019050919050565b600060208201905081810360008301526127698161272d565b9050919050565b60008190508160005260206000209050919050565b60006020601f8301049050919050565b600082821b905092915050565b6000600883026127d27fffffffffffffffffffffffffffffffffffffffffffffffffffffffffffffffff82612795565b6127dc8683612795565b95508019841693508086168417925050509392505050565b6000819050919050565b600061281961281461280f84611f0a565b6127f4565b611f0a565b9050919050565b6000819050919050565b612833836127fe565b61284761283f82612820565b8484546127a2565b825550505050565b600090565b61285c61284f565b61286781848461282a565b505050565b5b8181101561288b57612880600082612854565b60018101905061286d565b5050565b601f8211156128d0576128a181612770565b6128aa84612785565b810160208510156128b9578190505b6128cd6128c585612785565b83018261286c565b50505b505050565b600082821c905092915050565b60006128f3600019846008026128d5565b1980831691505092915050565b600061290c83836128e2565b9150826002028217905092915050565b61292582611e58565b67ffffffffffffffff81111561293e5761293d612155565b5b612948825461248b565b61295382828561288f565b600060209050601f8311600181146129865760008415612974578287015190505b61297e8582612900565b8655506129e6565b601f19841661299486612770565b60005b828110156129bc57848901518255600182019150602085019450602081019050612997565b868310156129d957848901516129d5601f8916826128e2565b8355505b6001600288020188555050505b505050505050565b7f4e487b7100000000000000000000000000000000000000000000000000000000600052601160045260246000fd5b6000612a2882611f0a565b9150612a3383611f0a565b9250828201905080821115612a4b57612a4a6129ee565b5b92915050565b600081905092915050565b6000612a6782611e58565b612a718185612a51565b9350612a81818560208601611e74565b80840191505092915050565b6000612a998285612a5c565b9150612aa58284612a5c565b91508190509392505050565b6000612abc82611f0a565b91507fffffffffffffffffffffffffffffffffffffffffffffffffffffffffffffffff8203612aee57612aed6129ee565b5b600182019050919050565b6000612b0482611f0a565b915060008203612b1757612b166129ee565b5b600182039050919050565b7f4552433732313a207472616e736665722066726f6d20696e636f72726563742060008201527f6f776e6572000000000000000000000000000000000000000000000000000000602082015250565b6000612b7e602583611e63565b9150612b8982612b22565b604082019050919050565b60006020820190508181036000830152612bad81612b71565b9050919050565b7f4552433732313a207472616e7366657220746f20746865207a65726f2061646460008201527f7265737300000000000000000000000000000000000000000000000000000000602082015250565b6000612c10602483611e63565b9150612c1b82612bb4565b604082019050919050565b60006020820190508181036000830152612c3f81612c03565b9050919050565b7f4552433732313a206d696e7420746f20746865207a65726f2061646472657373600082015250565b6000612c7c602083611e63565b9150612c8782612c46565b602082019050919050565b60006020820190508181036000830152612cab81612c6f565b9050919050565b7f4552433732313a20746f6b656e20616c7265616479206d696e74656400000000600082015250565b6000612ce8601c83611e63565b9150612cf382612cb2565b602082019050919050565b60006020820190508181036000830152612d1781612cdb565b9050919050565b7f4552433732313a20617070726f766520746f2063616c6c657200000000000000600082015250565b6000612d54601983611e63565b9150612d5f82612d1e565b602082019050919050565b60006020820190508181036000830152612d8381612d47565b9050919050565b7f4552433732313a207472616e7366657220746f206e6f6e20455243373231526560008201527f63656976657220696d706c656d656e7465720000000000000000000000000000602082015250565b6000612de6603283611e63565b9150612df182612d8a565b604082019050919050565b60006020820190508181036000830152612e1581612dd9565b9050919050565b7f4e487b7100000000000000000000000000000000000000000000000000000000600052601260045260246000fd5b600081519050919050565b600082825260208201905092915050565b6000612e7282612e4b565b612e7c8185612e56565b9350612e8c818560208601611e74565b612e9581611e9e565b840191505092915050565b6000608082019050612eb56000830187611f9f565b612ec26020830186611f9f565b612ecf6040830185612035565b8181036060830152612ee18184612e67565b905095945050505050565b600081519050612efb81611dc9565b92915050565b600060208284031215612f1757612f16611d93565b5b6000612f2584828501612eec565b9150509291505056fea2646970667358221220dc544125b431c9ff382ec3c09f663534cae713396db701f3e27ae68d7d8d975b64736f6c63430008130033",
  "immutableReferences": {},
  "source": "// SPDX-License-Identifier: UNLICENSED\n\npragma solidity ^0.8.0;\n\nimport '../node_modules/@openzeppelin/contracts/token/ERC721/ERC721.sol';\n\ncontract WaterLicense is ERC721 {\n    uint public tokenValue;\n    address owner;\n    bool public isLicenseApproved;\n    constructor() ERC721(\"WaterLicense\", \"WL\") {\n        owner = msg.sender;\n        tokenValue = 100;\n        isLicenseApproved = false;\n    }\n\n    struct Voter {\n        string name;\n        string email;\n        uint weight;\n        bool canVote;\n    }\n\n    mapping(address => Voter) voters;\n    uint totalVotes;\n\n    modifier onlyOwner() {\n        require(msg.sender == owner);\n        _;\n    }\n\n    function registerVoter(address voter, uint weight) public onlyOwner {\n        voters[voter].weight = weight;\n        voters[voter].canVote = true;\n    }\n\n    function castVote(string memory name, string memory email) public returns(uint) {\n        require(voters[msg.sender].canVote == true);\n        voters[msg.sender].name = name;\n        voters[msg.sender].email = email;\n        totalVotes += voters[msg.sender].weight;\n\n        if(totalVotes >= 3) {\n            isLicenseApproved = true;\n        }\n\n        return totalVotes;\n    }\n\n    struct buyer {\n        bool hasBought;\n        uint rating;\n    }\n\n    mapping(address => buyer) buyers;\n\n    function buyWater() public {\n        buyers[msg.sender].hasBought = true;\n    }\n\n    function rating(address reviewer, uint rate) public {\n        require(buyers[reviewer].hasBought == true);\n\n        buyers[reviewer].rating = rate;\n        if(rate >=3)\n            tokenValue++;\n        else\n            tokenValue--;\n    }\n\n    function mint(uint256 tokenId) public onlyOwner {\n\t\tsuper._mint(msg.sender, tokenId);\n\t}\n\n\tfunction transferStar(address starOwner, address to, uint256 tokenId) public onlyOwner {\n\t\tsafeTransferFrom(starOwner, to, tokenId);\n\t}\n\n    function renewLicense(string memory name, string memory email) public onlyOwner{\n        uint votes = castVote(name, email);\n\n        if(votes >= 3)\n            isLicenseApproved = true;\n        else\n            isLicenseApproved = false;\n    }\n}",
  "sourcePath": "/Users/rohan/Documents/Spring 23/Blockchain/ProjectCode/contracts/WaterLicense.sol",
  "compiler": {
    "name": "solc",
    "version": "0.8.19+commit.7dd6d404.Emscripten.clang"
  },
  "schemaVersion": "3.4.13",
  "updatedAt": "2023-03-28T16:49:42.220Z",
  "networkType": "ethereum",
  "devdoc": {
    "events": {
      "Approval(address,address,uint256)": {
        "details": "Emitted when `owner` enables `approved` to manage the `tokenId` token."
      },
      "ApprovalForAll(address,address,bool)": {
        "details": "Emitted when `owner` enables or disables (`approved`) `operator` to manage all of its assets."
      },
      "Transfer(address,address,uint256)": {
        "details": "Emitted when `tokenId` token is transferred from `from` to `to`."
      }
    },
    "kind": "dev",
    "methods": {
      "approve(address,uint256)": {
        "details": "See {IERC721-approve}."
      },
      "balanceOf(address)": {
        "details": "See {IERC721-balanceOf}."
      },
      "getApproved(uint256)": {
        "details": "See {IERC721-getApproved}."
      },
      "isApprovedForAll(address,address)": {
        "details": "See {IERC721-isApprovedForAll}."
      },
      "name()": {
        "details": "See {IERC721Metadata-name}."
      },
      "ownerOf(uint256)": {
        "details": "See {IERC721-ownerOf}."
      },
      "safeTransferFrom(address,address,uint256)": {
        "details": "See {IERC721-safeTransferFrom}."
      },
      "safeTransferFrom(address,address,uint256,bytes)": {
        "details": "See {IERC721-safeTransferFrom}."
      },
      "setApprovalForAll(address,bool)": {
        "details": "See {IERC721-setApprovalForAll}."
      },
      "supportsInterface(bytes4)": {
        "details": "See {IERC165-supportsInterface}."
      },
      "symbol()": {
        "details": "See {IERC721Metadata-symbol}."
      },
      "tokenURI(uint256)": {
        "details": "See {IERC721Metadata-tokenURI}."
      },
      "transferFrom(address,address,uint256)": {
        "details": "See {IERC721-transferFrom}."
      }
    },
    "version": 1
  },
  "userdoc": {
    "kind": "user",
    "methods": {},
    "version": 1
  }
}